{
  "contractName": "AdminList",
  "abi": [
    {
      "anonymous": false,
      "inputs": [
        {
          "indexed": false,
          "internalType": "bool",
          "name": "adminAdded",
          "type": "bool"
        },
        {
          "indexed": false,
          "internalType": "address",
          "name": "account",
          "type": "address"
        },
        {
          "indexed": false,
          "internalType": "string",
          "name": "message",
          "type": "string"
        }
      ],
      "name": "AdminAdded",
      "type": "event"
    },
    {
      "anonymous": false,
      "inputs": [
        {
          "indexed": false,
          "internalType": "bool",
          "name": "adminRemoved",
          "type": "bool"
        },
        {
          "indexed": false,
          "internalType": "address",
          "name": "account",
          "type": "address"
        }
      ],
      "name": "AdminRemoved",
      "type": "event"
    },
    {
      "inputs": [
        {
          "internalType": "uint256",
          "name": "",
          "type": "uint256"
        }
      ],
      "name": "allowlist",
      "outputs": [
        {
          "internalType": "address",
          "name": "",
          "type": "address"
        }
      ],
      "stateMutability": "view",
      "type": "function"
    }
  ],
  "bytecode": "0x608060405234801561001057600080fd5b50610199806100206000396000f3fe608060405234801561001057600080fd5b506004361061002b5760003560e01c806369c4582414610030575b600080fd5b61004a600480360381019061004591906100b4565b610060565b60405161005791906100f0565b60405180910390f35b6000818154811061007057600080fd5b906000526020600020016000915054906101000a900473ffffffffffffffffffffffffffffffffffffffff1681565b6000813590506100ae8161014c565b92915050565b6000602082840312156100ca576100c9610147565b5b60006100d88482850161009f565b91505092915050565b6100ea8161010b565b82525050565b600060208201905061010560008301846100e1565b92915050565b60006101168261011d565b9050919050565b600073ffffffffffffffffffffffffffffffffffffffff82169050919050565b6000819050919050565b600080fd5b6101558161013d565b811461016057600080fd5b5056fea26469706673582212206d35e476c9761126ed1b27e29fc7b7c84cedf06737761b3dfb976011c4b688c964736f6c63430008060033",
  "immutableReferences": {},
  "source": "/*\n * Copyright ConsenSys AG.\n *\n * Licensed under the Apache License, Version 2.0 (the \"License\"); you may not use this file except in compliance with\n * the License. You may obtain a copy of the License at\n *\n * http://www.apache.org/licenses/LICENSE-2.0\n *\n * Unless required by applicable law or agreed to in writing, software distributed under the License is distributed on\n * an \"AS IS\" BASIS, WITHOUT WARRANTIES OR CONDITIONS OF ANY KIND, either express or implied. See the License for the\n * specific language governing permissions and limitations under the License.\n *\n * SPDX-License-Identifier: Apache-2.0\n */\npragma solidity >=0.6.0 <0.9.0;\n\n\ncontract AdminList {\n    event AdminAdded(\n        bool adminAdded,\n        address account,\n        string message\n    );\n\n    event AdminRemoved(\n        bool adminRemoved,\n        address account\n    );\n\n    address[] public allowlist;\n    mapping (address => uint256) private indexOf; //1 based indexing. 0 means non-existent\n\n    function size() internal view returns (uint256) {\n        return allowlist.length;\n    }\n\n    function exists(address _account) internal view returns (bool) {\n        return indexOf[_account] != 0;\n    }\n\n    function add(address _account) internal returns (bool) {\n        if (indexOf[_account] == 0) {\n            allowlist.push(_account);\n            indexOf[_account] = allowlist.length;\n            return true;\n        }\n        return false;\n    }\n\n    function addAll(address[] memory accounts) internal returns (bool) {\n        bool allAdded = true;\n        for (uint i = 0; i<accounts.length; i++) {\n            if (msg.sender == accounts[i]) {\n                emit AdminAdded(false, accounts[i], \"Adding own account as Admin is not permitted\");\n                allAdded = allAdded && false;\n            } else if (exists(accounts[i])) {\n                emit AdminAdded(false, accounts[i], \"Account is already an Admin\");\n                allAdded = allAdded && false;\n            }  else {\n                bool result = add(accounts[i]);\n                string memory message = result ? \"Admin account added successfully\" : \"Account is already an Admin\";\n                emit AdminAdded(result, accounts[i], message);\n                allAdded = allAdded && result;\n            }\n        }\n\n        return allAdded;\n    }\n\n    function remove(address _account) internal returns (bool) {\n        uint256 index = indexOf[_account];\n        if (index > 0 && index <= allowlist.length) { //1-based indexing\n            //move last address into index being vacated (unless we are dealing with last index)\n            if (index != allowlist.length) {\n                address lastAccount = allowlist[allowlist.length - 1];\n                allowlist[index - 1] = lastAccount;\n                indexOf[lastAccount] = index;\n            }\n\n            //shrink array\n            allowlist.pop();\n            indexOf[_account] = 0;\n            return true;\n        }\n        return false;\n    }\n}\n",
  "sourcePath": "/home/ubuntu/permissioning-smart-contracts/contracts/AdminList.sol",
  "compiler": {
    "name": "solc",
    "version": "0.8.6+commit.11564f7e.Emscripten.clang"
  },
  "schemaVersion": "3.4.10",
  "updatedAt": "2022-11-14T21:08:03.739Z",
  "devdoc": {
    "kind": "dev",
    "methods": {},
    "version": 1
  },
  "userdoc": {
    "kind": "user",
    "methods": {},
    "version": 1
  }
}