{
  "contractName": "Admin",
  "abi": [
    {
      "inputs": [],
      "stateMutability": "nonpayable",
      "type": "constructor"
    },
    {
      "anonymous": false,
      "inputs": [
        {
          "indexed": false,
          "internalType": "bool",
          "name": "adminAdded",
          "type": "bool"
        },
        {
          "indexed": false,
          "internalType": "address",
          "name": "account",
          "type": "address"
        },
        {
          "indexed": false,
          "internalType": "string",
          "name": "message",
          "type": "string"
        }
      ],
      "name": "AdminAdded",
      "type": "event"
    },
    {
      "anonymous": false,
      "inputs": [
        {
          "indexed": false,
          "internalType": "bool",
          "name": "adminRemoved",
          "type": "bool"
        },
        {
          "indexed": false,
          "internalType": "address",
          "name": "account",
          "type": "address"
        }
      ],
      "name": "AdminRemoved",
      "type": "event"
    },
    {
      "inputs": [
        {
          "internalType": "uint256",
          "name": "",
          "type": "uint256"
        }
      ],
      "name": "allowlist",
      "outputs": [
        {
          "internalType": "address",
          "name": "",
          "type": "address"
        }
      ],
      "stateMutability": "view",
      "type": "function",
      "constant": true
    },
    {
      "inputs": [
        {
          "internalType": "address",
          "name": "_address",
          "type": "address"
        }
      ],
      "name": "isAuthorized",
      "outputs": [
        {
          "internalType": "bool",
          "name": "",
          "type": "bool"
        }
      ],
      "stateMutability": "view",
      "type": "function",
      "constant": true
    },
    {
      "inputs": [
        {
          "internalType": "address",
          "name": "_address",
          "type": "address"
        }
      ],
      "name": "addAdmin",
      "outputs": [
        {
          "internalType": "bool",
          "name": "",
          "type": "bool"
        }
      ],
      "stateMutability": "nonpayable",
      "type": "function"
    },
    {
      "inputs": [
        {
          "internalType": "address",
          "name": "_address",
          "type": "address"
        }
      ],
      "name": "removeAdmin",
      "outputs": [
        {
          "internalType": "bool",
          "name": "",
          "type": "bool"
        }
      ],
      "stateMutability": "nonpayable",
      "type": "function"
    },
    {
      "inputs": [],
      "name": "getAdmins",
      "outputs": [
        {
          "internalType": "address[]",
          "name": "",
          "type": "address[]"
        }
      ],
      "stateMutability": "view",
      "type": "function",
      "constant": true
    },
    {
      "inputs": [
        {
          "internalType": "address[]",
          "name": "accounts",
          "type": "address[]"
        }
      ],
      "name": "addAdmins",
      "outputs": [
        {
          "internalType": "bool",
          "name": "",
          "type": "bool"
        }
      ],
      "stateMutability": "nonpayable",
      "type": "function"
    }
  ],
  "bytecode": "0x608060405234801561001057600080fd5b506100203361002660201b60201c565b5061012e565b600080600160008473ffffffffffffffffffffffffffffffffffffffff1673ffffffffffffffffffffffffffffffffffffffff168152602001908152602001600020541415610124576000829080600181540180825580915050600190039060005260206000200160009091909190916101000a81548173ffffffffffffffffffffffffffffffffffffffff021916908373ffffffffffffffffffffffffffffffffffffffff160217905550600080549050600160008473ffffffffffffffffffffffffffffffffffffffff1673ffffffffffffffffffffffffffffffffffffffff1681526020019081526020016000208190555060019050610129565b600090505b919050565b6112c28061013d6000396000f3fe608060405234801561001057600080fd5b50600436106100625760003560e01c80631785f53c1461006757806331ae450b1461009757806369c45824146100b557806370480275146100e55780639c54df6414610115578063fe9fbb8014610145575b600080fd5b610081600480360381019061007c9190610be4565b610175565b60405161008e9190610e30565b60405180910390f35b61009f61027f565b6040516100ac9190610e0e565b60405180910390f35b6100cf60048036038101906100ca9190610c5e565b61030d565b6040516100dc9190610df3565b60405180910390f35b6100ff60048036038101906100fa9190610be4565b61034c565b60405161010c9190610e30565b60405180910390f35b61012f600480360381019061012a9190610c11565b6104db565b60405161013c9190610e30565b60405180910390f35b61015f600480360381019061015a9190610be4565b610577565b60405161016c9190610e30565b60405180910390f35b600061018033610577565b6101bf576040517f08c379a00000000000000000000000000000000000000000000000000000000081526004016101b690610f2a565b60405180910390fd5b818073ffffffffffffffffffffffffffffffffffffffff163373ffffffffffffffffffffffffffffffffffffffff16141561022f576040517f08c379a000000000000000000000000000000000000000000000000000000000815260040161022690610f4a565b60405180910390fd5b600061023a84610589565b90507ffbc33d7f56a96d61d4abddfc7042046c18a827519bf20efea2aae15bf15ba9c4818560405161026d929190610e4b565b60405180910390a18092505050919050565b6060600080548060200260200160405190810160405280929190818152602001828054801561030357602002820191906000526020600020905b8160009054906101000a900473ffffffffffffffffffffffffffffffffffffffff1673ffffffffffffffffffffffffffffffffffffffff16815260200190600101908083116102b9575b5050505050905090565b6000818154811061031d57600080fd5b906000526020600020016000915054906101000a900473ffffffffffffffffffffffffffffffffffffffff1681565b600061035733610577565b610396576040517f08c379a000000000000000000000000000000000000000000000000000000000815260040161038d90610f2a565b60405180910390fd5b8173ffffffffffffffffffffffffffffffffffffffff163373ffffffffffffffffffffffffffffffffffffffff16141561040d577f7de09b89cd6310ad2dbbef9b99bee3df114399d19b156a3dc6afb8f5ff60781a6000836040516103fc929190610eee565b60405180910390a1600090506104d6565b600061041883610797565b905060008161045c576040518060400160405280601b81526020017f4163636f756e7420697320616c726561647920616e2041646d696e0000000000815250610493565b6040518060400160405280602081526020017f41646d696e206163636f756e74206164646564207375636365737366756c6c798152505b90507f7de09b89cd6310ad2dbbef9b99bee3df114399d19b156a3dc6afb8f5ff60781a8285836040516104c893929190610e74565b60405180910390a181925050505b919050565b60006104e633610577565b610525576040517f08c379a000000000000000000000000000000000000000000000000000000000815260040161051c90610f2a565b60405180910390fd5b61056f838380806020026020016040519081016040528093929190818152602001838360200280828437600081840152601f19601f8201169050808301925050505050505061089f565b905092915050565b600061058282610b18565b9050919050565b600080600160008473ffffffffffffffffffffffffffffffffffffffff1673ffffffffffffffffffffffffffffffffffffffff1681526020019081526020016000205490506000811180156105e357506000805490508111155b1561078c5760008054905081146106f65760008060016000805490506106099190610fbf565b8154811061061a57610619611115565b5b9060005260206000200160009054906101000a900473ffffffffffffffffffffffffffffffffffffffff1690508060006001846106579190610fbf565b8154811061066857610667611115565b5b9060005260206000200160006101000a81548173ffffffffffffffffffffffffffffffffffffffff021916908373ffffffffffffffffffffffffffffffffffffffff16021790555081600160008373ffffffffffffffffffffffffffffffffffffffff1673ffffffffffffffffffffffffffffffffffffffff16815260200190815260200160002081905550505b6000805480610708576107076110e6565b5b6001900381819060005260206000200160006101000a81549073ffffffffffffffffffffffffffffffffffffffff021916905590556000600160008573ffffffffffffffffffffffffffffffffffffffff1673ffffffffffffffffffffffffffffffffffffffff168152602001908152602001600020819055506001915050610792565b60009150505b919050565b600080600160008473ffffffffffffffffffffffffffffffffffffffff1673ffffffffffffffffffffffffffffffffffffffff168152602001908152602001600020541415610895576000829080600181540180825580915050600190039060005260206000200160009091909190916101000a81548173ffffffffffffffffffffffffffffffffffffffff021916908373ffffffffffffffffffffffffffffffffffffffff160217905550600080549050600160008473ffffffffffffffffffffffffffffffffffffffff1673ffffffffffffffffffffffffffffffffffffffff168152602001908152602001600020819055506001905061089a565b600090505b919050565b6000806001905060005b8351811015610b0e578381815181106108c5576108c4611115565b5b602002602001015173ffffffffffffffffffffffffffffffffffffffff163373ffffffffffffffffffffffffffffffffffffffff161415610966577f7de09b89cd6310ad2dbbef9b99bee3df114399d19b156a3dc6afb8f5ff60781a600085838151811061093657610935611115565b5b602002602001015160405161094c929190610eee565b60405180910390a181801561095f575060005b9150610afb565b61098984828151811061097c5761097b611115565b5b6020026020010151610b18565b156109f4577f7de09b89cd6310ad2dbbef9b99bee3df114399d19b156a3dc6afb8f5ff60781a60008583815181106109c4576109c3611115565b5b60200260200101516040516109da929190610eb2565b60405180910390a18180156109ed575060005b9150610afa565b6000610a19858381518110610a0c57610a0b611115565b5b6020026020010151610797565b9050600081610a5d576040518060400160405280601b81526020017f4163636f756e7420697320616c726561647920616e2041646d696e0000000000815250610a94565b6040518060400160405280602081526020017f41646d696e206163636f756e74206164646564207375636365737366756c6c798152505b90507f7de09b89cd6310ad2dbbef9b99bee3df114399d19b156a3dc6afb8f5ff60781a82878581518110610acb57610aca611115565b5b602002602001015183604051610ae393929190610e74565b60405180910390a1838015610af55750815b935050505b5b8080610b069061106e565b9150506108a9565b5080915050919050565b600080600160008473ffffffffffffffffffffffffffffffffffffffff1673ffffffffffffffffffffffffffffffffffffffff1681526020019081526020016000205414159050919050565b600081359050610b738161125e565b92915050565b60008083601f840112610b8f57610b8e611149565b5b8235905067ffffffffffffffff811115610bac57610bab611144565b5b602083019150836020820283011115610bc857610bc761114e565b5b9250929050565b600081359050610bde81611275565b92915050565b600060208284031215610bfa57610bf9611158565b5b6000610c0884828501610b64565b91505092915050565b60008060208385031215610c2857610c27611158565b5b600083013567ffffffffffffffff811115610c4657610c45611153565b5b610c5285828601610b79565b92509250509250929050565b600060208284031215610c7457610c73611158565b5b6000610c8284828501610bcf565b91505092915050565b6000610c978383610ca3565b60208301905092915050565b610cac81610ff3565b82525050565b610cbb81610ff3565b82525050565b6000610ccc82610f7a565b610cd68185610f9d565b9350610ce183610f6a565b8060005b83811015610d12578151610cf98882610c8b565b9750610d0483610f90565b925050600181019050610ce5565b5085935050505092915050565b610d2881611005565b82525050565b6000610d3982610f85565b610d438185610fae565b9350610d5381856020860161103b565b610d5c8161115d565b840191505092915050565b6000610d74601583610fae565b9150610d7f8261116e565b602082019050919050565b6000610d97601b83610fae565b9150610da282611197565b602082019050919050565b6000610dba603283610fae565b9150610dc5826111c0565b604082019050919050565b6000610ddd602c83610fae565b9150610de88261120f565b604082019050919050565b6000602082019050610e086000830184610cb2565b92915050565b60006020820190508181036000830152610e288184610cc1565b905092915050565b6000602082019050610e456000830184610d1f565b92915050565b6000604082019050610e606000830185610d1f565b610e6d6020830184610cb2565b9392505050565b6000606082019050610e896000830186610d1f565b610e966020830185610cb2565b8181036040830152610ea88184610d2e565b9050949350505050565b6000606082019050610ec76000830185610d1f565b610ed46020830184610cb2565b8181036040830152610ee581610d8a565b90509392505050565b6000606082019050610f036000830185610d1f565b610f106020830184610cb2565b8181036040830152610f2181610dd0565b90509392505050565b60006020820190508181036000830152610f4381610d67565b9050919050565b60006020820190508181036000830152610f6381610dad565b9050919050565b6000819050602082019050919050565b600081519050919050565b600081519050919050565b6000602082019050919050565b600082825260208201905092915050565b600082825260208201905092915050565b6000610fca82611031565b9150610fd583611031565b925082821015610fe857610fe76110b7565b5b828203905092915050565b6000610ffe82611011565b9050919050565b60008115159050919050565b600073ffffffffffffffffffffffffffffffffffffffff82169050919050565b6000819050919050565b60005b8381101561105957808201518184015260208101905061103e565b83811115611068576000848401525b50505050565b600061107982611031565b91507fffffffffffffffffffffffffffffffffffffffffffffffffffffffffffffffff8214156110ac576110ab6110b7565b5b600182019050919050565b7f4e487b7100000000000000000000000000000000000000000000000000000000600052601160045260246000fd5b7f4e487b7100000000000000000000000000000000000000000000000000000000600052603160045260246000fd5b7f4e487b7100000000000000000000000000000000000000000000000000000000600052603260045260246000fd5b600080fd5b600080fd5b600080fd5b600080fd5b600080fd5b6000601f19601f8301169050919050565b7f53656e646572206e6f7420617574686f72697a65640000000000000000000000600082015250565b7f4163636f756e7420697320616c726561647920616e2041646d696e0000000000600082015250565b7f43616e6e6f7420696e766f6b65206d6574686f642077697468206f776e20616360008201527f636f756e7420617320706172616d657465720000000000000000000000000000602082015250565b7f416464696e67206f776e206163636f756e742061732041646d696e206973206e60008201527f6f74207065726d69747465640000000000000000000000000000000000000000602082015250565b61126781610ff3565b811461127257600080fd5b50565b61127e81611031565b811461128957600080fd5b5056fea2646970667358221220c114773d3f8804baa70cd3a13f4bbba426c2010a0774cbd994c119adb8bf6a2c64736f6c63430008060033",
  "immutableReferences": {},
  "source": "/*\n * Copyright ConsenSys AG.\n *\n * Licensed under the Apache License, Version 2.0 (the \"License\"); you may not use this file except in compliance with\n * the License. You may obtain a copy of the License at\n *\n * http://www.apache.org/licenses/LICENSE-2.0\n *\n * Unless required by applicable law or agreed to in writing, software distributed under the License is distributed on\n * an \"AS IS\" BASIS, WITHOUT WARRANTIES OR CONDITIONS OF ANY KIND, either express or implied. See the License for the\n * specific language governing permissions and limitations under the License.\n *\n * SPDX-License-Identifier: Apache-2.0\n */\npragma solidity >=0.6.0 <0.9.0;\n\nimport \"./AdminProxy.sol\";\nimport \"./AdminList.sol\";\n\n\ncontract Admin is AdminProxy, AdminList {\n    modifier onlyAdmin() {\n        require(isAuthorized(msg.sender), \"Sender not authorized\");\n        _;\n    }\n\n    modifier notSelf(address _address) {\n        require(msg.sender != _address, \"Cannot invoke method with own account as parameter\");\n        _;\n    }\n\n    constructor() public {\n        add(msg.sender);\n    }\n\n    function isAuthorized(address _address) public override view returns (bool) {\n        return exists(_address);\n    }\n\n    function addAdmin(address _address) external onlyAdmin returns (bool) {\n        if (msg.sender == _address) {\n            emit AdminAdded(false, _address, \"Adding own account as Admin is not permitted\");\n            return false;\n        } else {\n            bool result = add(_address);\n            string memory message = result ? \"Admin account added successfully\" : \"Account is already an Admin\";\n            emit AdminAdded(result, _address, message);\n            return result;\n        }\n    }\n\n    function removeAdmin(address _address) external onlyAdmin notSelf(_address) returns (bool) {\n        bool removed = remove(_address);\n        emit AdminRemoved(removed, _address);\n        return removed;\n    }\n\n    function getAdmins() external view returns (address[] memory){\n        return allowlist; // mythx-disable-line SWC-128\n    }\n\n    function addAdmins(address[] calldata accounts) external onlyAdmin returns (bool) {\n        return addAll(accounts);\n    }\n}\n",
  "sourcePath": "/home/ubuntu/permissioning-smart-contracts/contracts/Admin.sol",
  "compiler": {
    "name": "solc",
    "version": "0.8.6+commit.11564f7e.Emscripten.clang"
  },
  "schemaVersion": "3.4.10",
  "updatedAt": "2022-11-16T00:36:33.261Z",
  "networkType": "ethereum",
  "devdoc": {
    "kind": "dev",
    "methods": {},
    "version": 1
  },
  "userdoc": {
    "kind": "user",
    "methods": {},
    "version": 1
  }
}