{
  "contractName": "ExposedNodeRulesList",
  "abi": [
    {
      "inputs": [
        {
          "internalType": "string",
          "name": "_enodeId",
          "type": "string"
        },
        {
          "internalType": "string",
          "name": "_host",
          "type": "string"
        },
        {
          "internalType": "uint16",
          "name": "_port",
          "type": "uint16"
        }
      ],
      "name": "calculateKey",
      "outputs": [
        {
          "internalType": "uint256",
          "name": "",
          "type": "uint256"
        }
      ],
      "stateMutability": "view",
      "type": "function"
    },
    {
      "inputs": [
        {
          "internalType": "uint256",
          "name": "index",
          "type": "uint256"
        }
      ],
      "name": "getByIndex",
      "outputs": [
        {
          "internalType": "string",
          "name": "enodeId",
          "type": "string"
        },
        {
          "internalType": "string",
          "name": "host",
          "type": "string"
        },
        {
          "internalType": "uint16",
          "name": "port",
          "type": "uint16"
        }
      ],
      "stateMutability": "view",
      "type": "function"
    },
    {
      "inputs": [
        {
          "internalType": "contract NodeStorage",
          "name": "_storage",
          "type": "address"
        }
      ],
      "name": "_setStorage",
      "outputs": [],
      "stateMutability": "nonpayable",
      "type": "function"
    },
    {
      "inputs": [
        {
          "internalType": "string",
          "name": "_enodeId",
          "type": "string"
        },
        {
          "internalType": "string",
          "name": "_host",
          "type": "string"
        },
        {
          "internalType": "uint16",
          "name": "_port",
          "type": "uint16"
        }
      ],
      "name": "_calculateKey",
      "outputs": [
        {
          "internalType": "uint256",
          "name": "",
          "type": "uint256"
        }
      ],
      "stateMutability": "view",
      "type": "function"
    },
    {
      "inputs": [],
      "name": "_size",
      "outputs": [
        {
          "internalType": "uint256",
          "name": "",
          "type": "uint256"
        }
      ],
      "stateMutability": "view",
      "type": "function"
    },
    {
      "inputs": [
        {
          "internalType": "string",
          "name": "_enodeId",
          "type": "string"
        },
        {
          "internalType": "string",
          "name": "_host",
          "type": "string"
        },
        {
          "internalType": "uint16",
          "name": "_port",
          "type": "uint16"
        }
      ],
      "name": "_exists",
      "outputs": [
        {
          "internalType": "bool",
          "name": "",
          "type": "bool"
        }
      ],
      "stateMutability": "view",
      "type": "function"
    },
    {
      "inputs": [
        {
          "internalType": "string",
          "name": "_enodeId",
          "type": "string"
        },
        {
          "internalType": "string",
          "name": "_host",
          "type": "string"
        },
        {
          "internalType": "uint16",
          "name": "_port",
          "type": "uint16"
        }
      ],
      "name": "_add",
      "outputs": [
        {
          "internalType": "bool",
          "name": "",
          "type": "bool"
        }
      ],
      "stateMutability": "nonpayable",
      "type": "function"
    },
    {
      "inputs": [
        {
          "internalType": "string",
          "name": "_enodeId",
          "type": "string"
        },
        {
          "internalType": "string",
          "name": "_host",
          "type": "string"
        },
        {
          "internalType": "uint16",
          "name": "_port",
          "type": "uint16"
        }
      ],
      "name": "_remove",
      "outputs": [
        {
          "internalType": "bool",
          "name": "",
          "type": "bool"
        }
      ],
      "stateMutability": "nonpayable",
      "type": "function"
    }
  ],
  "bytecode": "0x608060405234801561001057600080fd5b50611047806100206000396000f3fe608060405234801561001057600080fd5b50600436106100885760003560e01c80635f9ac61c1161005b5780635f9ac61c1461013b5780638079afff1461016b578063b8debb1b1461019b578063d136d90c146101cb57610088565b80631588620e1461008d57806321754325146100bd5780632d883a73146100ed5780634bc061081461011f575b600080fd5b6100a760048036038101906100a29190610b24565b6101e9565b6040516100b49190610def565b60405180910390f35b6100d760048036038101906100d29190610b24565b610289565b6040516100e49190610d8f565b60405180910390f35b61010760048036038101906101029190610ccf565b610329565b60405161011693929190610daa565b60405180910390f35b61013960048036038101906101349190610af7565b6103ea565b005b61015560048036038101906101509190610b24565b6103f6565b6040516101629190610d8f565b60405180910390f35b61018560048036038101906101809190610b24565b610496565b6040516101929190610d8f565b60405180910390f35b6101b560048036038101906101b09190610bb9565b610536565b6040516101c29190610def565b60405180910390f35b6101d36105ef565b6040516101e09190610def565b60405180910390f35b600061027e86868080601f016020809104026020016040519081016040528093929190818152602001838380828437600081840152601f19601f8201169050808301925050505050505085858080601f016020809104026020016040519081016040528093929190818152602001838380828437600081840152601f19601f8201169050808301925050505050505084610536565b905095945050505050565b600061031e86868080601f016020809104026020016040519081016040528093929190818152602001838380828437600081840152601f19601f8201169050808301925050505050505085858080601f016020809104026020016040519081016040528093929190818152602001838380828437600081840152601f19601f82011690508083019250505050505050846105fe565b905095945050505050565b60608060008060009054906101000a900473ffffffffffffffffffffffffffffffffffffffff1673ffffffffffffffffffffffffffffffffffffffff16632d883a73856040518263ffffffff1660e01b81526004016103889190610def565b60006040518083038186803b1580156103a057600080fd5b505afa1580156103b4573d6000803e3d6000fd5b505050506040513d6000823e3d601f19601f820116820180604052508101906103dd9190610c44565b9250925092509193909250565b6103f3816106b9565b50565b600061048b86868080601f016020809104026020016040519081016040528093929190818152602001838380828437600081840152601f19601f8201169050808301925050505050505085858080601f016020809104026020016040519081016040528093929190818152602001838380828437600081840152601f19601f82011690508083019250505050505050846106fc565b905095945050505050565b600061052b86868080601f016020809104026020016040519081016040528093929190818152602001838380828437600081840152601f19601f8201169050808301925050505050505085858080601f016020809104026020016040519081016040528093929190818152602001838380828437600081840152601f19601f82011690508083019250505050505050846107b5565b905095945050505050565b60008060009054906101000a900473ffffffffffffffffffffffffffffffffffffffff1673ffffffffffffffffffffffffffffffffffffffff1663b8debb1b8585856040518463ffffffff1660e01b815260040161059693929190610daa565b60206040518083038186803b1580156105ae57600080fd5b505afa1580156105c2573d6000803e3d6000fd5b505050506040513d601f19601f820116820180604052508101906105e69190610cfc565b90509392505050565b60006105f9610870565b905090565b60008060009054906101000a900473ffffffffffffffffffffffffffffffffffffffff1673ffffffffffffffffffffffffffffffffffffffff1663f49b92238585856040518463ffffffff1660e01b815260040161065e93929190610daa565b602060405180830381600087803b15801561067857600080fd5b505af115801561068c573d6000803e3d6000fd5b505050506040513d601f19601f820116820180604052508101906106b09190610aca565b90509392505050565b806000806101000a81548173ffffffffffffffffffffffffffffffffffffffff021916908373ffffffffffffffffffffffffffffffffffffffff16021790555050565b60008060009054906101000a900473ffffffffffffffffffffffffffffffffffffffff1673ffffffffffffffffffffffffffffffffffffffff166347c065cd8585856040518463ffffffff1660e01b815260040161075c93929190610daa565b60206040518083038186803b15801561077457600080fd5b505afa158015610788573d6000803e3d6000fd5b505050506040513d601f19601f820116820180604052508101906107ac9190610aca565b90509392505050565b60008060009054906101000a900473ffffffffffffffffffffffffffffffffffffffff1673ffffffffffffffffffffffffffffffffffffffff1663da85216c8585856040518463ffffffff1660e01b815260040161081593929190610daa565b602060405180830381600087803b15801561082f57600080fd5b505af1158015610843573d6000803e3d6000fd5b505050506040513d601f19601f820116820180604052508101906108679190610aca565b90509392505050565b60008060009054906101000a900473ffffffffffffffffffffffffffffffffffffffff1673ffffffffffffffffffffffffffffffffffffffff1663949d225d6040518163ffffffff1660e01b815260040160206040518083038186803b1580156108d957600080fd5b505afa1580156108ed573d6000803e3d6000fd5b505050506040513d601f19601f820116820180604052508101906109119190610cfc565b905090565b600061092961092484610e2f565b610e0a565b90508281526020810184848401111561094557610944610f95565b5b610950848285610ee4565b509392505050565b600061096b61096684610e2f565b610e0a565b90508281526020810184848401111561098757610986610f95565b5b610992848285610ef3565b509392505050565b6000815190506109a981610fb5565b92915050565b6000813590506109be81610fcc565b92915050565b60008083601f8401126109da576109d9610f8b565b5b8235905067ffffffffffffffff8111156109f7576109f6610f86565b5b602083019150836001820283011115610a1357610a12610f90565b5b9250929050565b600082601f830112610a2f57610a2e610f8b565b5b8135610a3f848260208601610916565b91505092915050565b600082601f830112610a5d57610a5c610f8b565b5b8151610a6d848260208601610958565b91505092915050565b600081359050610a8581610fe3565b92915050565b600081519050610a9a81610fe3565b92915050565b600081359050610aaf81610ffa565b92915050565b600081519050610ac481610ffa565b92915050565b600060208284031215610ae057610adf610f9f565b5b6000610aee8482850161099a565b91505092915050565b600060208284031215610b0d57610b0c610f9f565b5b6000610b1b848285016109af565b91505092915050565b600080600080600060608688031215610b4057610b3f610f9f565b5b600086013567ffffffffffffffff811115610b5e57610b5d610f9a565b5b610b6a888289016109c4565b9550955050602086013567ffffffffffffffff811115610b8d57610b8c610f9a565b5b610b99888289016109c4565b93509350506040610bac88828901610a76565b9150509295509295909350565b600080600060608486031215610bd257610bd1610f9f565b5b600084013567ffffffffffffffff811115610bf057610bef610f9a565b5b610bfc86828701610a1a565b935050602084013567ffffffffffffffff811115610c1d57610c1c610f9a565b5b610c2986828701610a1a565b9250506040610c3a86828701610a76565b9150509250925092565b600080600060608486031215610c5d57610c5c610f9f565b5b600084015167ffffffffffffffff811115610c7b57610c7a610f9a565b5b610c8786828701610a48565b935050602084015167ffffffffffffffff811115610ca857610ca7610f9a565b5b610cb486828701610a48565b9250506040610cc586828701610a8b565b9150509250925092565b600060208284031215610ce557610ce4610f9f565b5b6000610cf384828501610aa0565b91505092915050565b600060208284031215610d1257610d11610f9f565b5b6000610d2084828501610ab5565b91505092915050565b610d3281610e8e565b82525050565b6000610d4382610e60565b610d4d8185610e6b565b9350610d5d818560208601610ef3565b610d6681610fa4565b840191505092915050565b610d7a81610eac565b82525050565b610d8981610eda565b82525050565b6000602082019050610da46000830184610d29565b92915050565b60006060820190508181036000830152610dc48186610d38565b90508181036020830152610dd88185610d38565b9050610de76040830184610d71565b949350505050565b6000602082019050610e046000830184610d80565b92915050565b6000610e14610e25565b9050610e208282610f26565b919050565b6000604051905090565b600067ffffffffffffffff821115610e4a57610e49610f57565b5b610e5382610fa4565b9050602081019050919050565b600081519050919050565b600082825260208201905092915050565b6000610e8782610eba565b9050919050565b60008115159050919050565b6000610ea582610e7c565b9050919050565b600061ffff82169050919050565b600073ffffffffffffffffffffffffffffffffffffffff82169050919050565b6000819050919050565b82818337600083830152505050565b60005b83811015610f11578082015181840152602081019050610ef6565b83811115610f20576000848401525b50505050565b610f2f82610fa4565b810181811067ffffffffffffffff82111715610f4e57610f4d610f57565b5b80604052505050565b7f4e487b7100000000000000000000000000000000000000000000000000000000600052604160045260246000fd5b600080fd5b600080fd5b600080fd5b600080fd5b600080fd5b600080fd5b6000601f19601f8301169050919050565b610fbe81610e8e565b8114610fc957600080fd5b50565b610fd581610e9a565b8114610fe057600080fd5b50565b610fec81610eac565b8114610ff757600080fd5b50565b61100381610eda565b811461100e57600080fd5b5056fea26469706673582212201da4110d4807238faac2250f6fc38815f0832596980873f3764226554c9f2df564736f6c63430008060033",
  "immutableReferences": {},
  "source": "/*\n * Copyright ConsenSys AG.\n *\n * Licensed under the Apache License, Version 2.0 (the \"License\"); you may not use this file except in compliance with\n * the License. You may obtain a copy of the License at\n *\n * http://www.apache.org/licenses/LICENSE-2.0\n *\n * Unless required by applicable law or agreed to in writing, software distributed under the License is distributed on\n * an \"AS IS\" BASIS, WITHOUT WARRANTIES OR CONDITIONS OF ANY KIND, either express or implied. See the License for the\n * specific language governing permissions and limitations under the License.\n *\n * SPDX-License-Identifier: Apache-2.0\n */\npragma solidity >=0.6.0 <0.9.0;\n\nimport \"./NodeRulesList.sol\";\nimport \"./NodeStorage.sol\";\n\n\ncontract ExposedNodeRulesList is NodeRulesList {\n\n    function _setStorage(NodeStorage _storage) public {\n        return setStorage(_storage);\n    }\n\n    function _calculateKey(string calldata _enodeId, string calldata _host, uint16 _port) external view returns(uint256) {\n        return calculateKey(_enodeId, _host, _port);\n    }\n\n    function _size() external view returns (uint256) {\n        return size();\n    }\n\n    function _exists(string calldata _enodeId, string calldata _host, uint16 _port) external view returns (bool) {\n        return exists(_enodeId, _host, _port);\n    }\n\n    function _add(string calldata _enodeId, string calldata _host, uint16 _port) external returns (bool) {\n        return add(_enodeId, _host, _port);\n    }\n\n    function _remove(string calldata _enodeId, string calldata _host, uint16 _port) external returns (bool) {\n        return remove(_enodeId, _host, _port);\n    }\n}\n",
  "sourcePath": "/home/ubuntu/permissioning-smart-contracts/contracts/ExposedNodeRulesList.sol",
  "compiler": {
    "name": "solc",
    "version": "0.8.6+commit.11564f7e.Emscripten.clang"
  },
  "schemaVersion": "3.4.10",
  "updatedAt": "2022-11-14T21:08:03.747Z",
  "devdoc": {
    "kind": "dev",
    "methods": {},
    "version": 1
  },
  "userdoc": {
    "kind": "user",
    "methods": {},
    "version": 1
  }
}