{
  "contractName": "ExposedAdminList",
  "abi": [
    {
      "anonymous": false,
      "inputs": [
        {
          "indexed": false,
          "internalType": "bool",
          "name": "adminAdded",
          "type": "bool"
        },
        {
          "indexed": false,
          "internalType": "address",
          "name": "account",
          "type": "address"
        },
        {
          "indexed": false,
          "internalType": "string",
          "name": "message",
          "type": "string"
        }
      ],
      "name": "AdminAdded",
      "type": "event"
    },
    {
      "anonymous": false,
      "inputs": [
        {
          "indexed": false,
          "internalType": "bool",
          "name": "adminRemoved",
          "type": "bool"
        },
        {
          "indexed": false,
          "internalType": "address",
          "name": "account",
          "type": "address"
        }
      ],
      "name": "AdminRemoved",
      "type": "event"
    },
    {
      "inputs": [
        {
          "internalType": "uint256",
          "name": "",
          "type": "uint256"
        }
      ],
      "name": "allowlist",
      "outputs": [
        {
          "internalType": "address",
          "name": "",
          "type": "address"
        }
      ],
      "stateMutability": "view",
      "type": "function"
    },
    {
      "inputs": [],
      "name": "_size",
      "outputs": [
        {
          "internalType": "uint256",
          "name": "",
          "type": "uint256"
        }
      ],
      "stateMutability": "view",
      "type": "function"
    },
    {
      "inputs": [
        {
          "internalType": "address",
          "name": "_address",
          "type": "address"
        }
      ],
      "name": "_exists",
      "outputs": [
        {
          "internalType": "bool",
          "name": "",
          "type": "bool"
        }
      ],
      "stateMutability": "view",
      "type": "function"
    },
    {
      "inputs": [
        {
          "internalType": "address",
          "name": "_address",
          "type": "address"
        }
      ],
      "name": "_add",
      "outputs": [
        {
          "internalType": "bool",
          "name": "",
          "type": "bool"
        }
      ],
      "stateMutability": "nonpayable",
      "type": "function"
    },
    {
      "inputs": [
        {
          "internalType": "address",
          "name": "_address",
          "type": "address"
        }
      ],
      "name": "_remove",
      "outputs": [
        {
          "internalType": "bool",
          "name": "",
          "type": "bool"
        }
      ],
      "stateMutability": "nonpayable",
      "type": "function"
    },
    {
      "inputs": [
        {
          "internalType": "address[]",
          "name": "_addresses",
          "type": "address[]"
        }
      ],
      "name": "_addBatch",
      "outputs": [
        {
          "internalType": "bool",
          "name": "",
          "type": "bool"
        }
      ],
      "stateMutability": "nonpayable",
      "type": "function"
    }
  ],
  "bytecode": "0x608060405234801561001057600080fd5b50610db5806100206000396000f3fe608060405234801561001057600080fd5b50600436106100625760003560e01c806310d426f2146100675780634d4695821461009757806369c45824146100c7578063c3b3a3c9146100f7578063c80847ea14610127578063d136d90c14610157575b600080fd5b610081600480360381019061007c91906108b4565b610175565b60405161008e9190610a22565b60405180910390f35b6100b160048036038101906100ac91906108e1565b610187565b6040516100be9190610a22565b60405180910390f35b6100e160048036038101906100dc919061092e565b6101db565b6040516100ee9190610a07565b60405180910390f35b610111600480360381019061010c91906108b4565b61021a565b60405161011e9190610a22565b60405180910390f35b610141600480360381019061013c91906108b4565b61022c565b60405161014e9190610a22565b60405180910390f35b61015f61023e565b60405161016c9190610af3565b60405180910390f35b60006101808261024d565b9050919050565b60006101d3838380806020026020016040519081016040528093929190818152602001838360200280828437600081840152601f19601f8201169050808301925050505050505061045b565b905092915050565b600081815481106101eb57600080fd5b906000526020600020016000915054906101000a900473ffffffffffffffffffffffffffffffffffffffff1681565b6000610225826106d4565b9050919050565b600061023782610720565b9050919050565b6000610248610828565b905090565b600080600160008473ffffffffffffffffffffffffffffffffffffffff1673ffffffffffffffffffffffffffffffffffffffff1681526020019081526020016000205490506000811180156102a757506000805490508111155b156104505760008054905081146103ba5760008060016000805490506102cd9190610b2a565b815481106102de576102dd610c80565b5b9060005260206000200160009054906101000a900473ffffffffffffffffffffffffffffffffffffffff16905080600060018461031b9190610b2a565b8154811061032c5761032b610c80565b5b9060005260206000200160006101000a81548173ffffffffffffffffffffffffffffffffffffffff021916908373ffffffffffffffffffffffffffffffffffffffff16021790555081600160008373ffffffffffffffffffffffffffffffffffffffff1673ffffffffffffffffffffffffffffffffffffffff16815260200190815260200160002081905550505b60008054806103cc576103cb610c51565b5b6001900381819060005260206000200160006101000a81549073ffffffffffffffffffffffffffffffffffffffff021916905590556000600160008573ffffffffffffffffffffffffffffffffffffffff1673ffffffffffffffffffffffffffffffffffffffff168152602001908152602001600020819055506001915050610456565b60009150505b919050565b6000806001905060005b83518110156106ca5783818151811061048157610480610c80565b5b602002602001015173ffffffffffffffffffffffffffffffffffffffff163373ffffffffffffffffffffffffffffffffffffffff161415610522577f7de09b89cd6310ad2dbbef9b99bee3df114399d19b156a3dc6afb8f5ff60781a60008583815181106104f2576104f1610c80565b5b6020026020010151604051610508929190610ab7565b60405180910390a181801561051b575060005b91506106b7565b61054584828151811061053857610537610c80565b5b60200260200101516106d4565b156105b0577f7de09b89cd6310ad2dbbef9b99bee3df114399d19b156a3dc6afb8f5ff60781a60008583815181106105805761057f610c80565b5b6020026020010151604051610596929190610a7b565b60405180910390a18180156105a9575060005b91506106b6565b60006105d58583815181106105c8576105c7610c80565b5b6020026020010151610720565b9050600081610619576040518060400160405280601b81526020017f4163636f756e7420697320616c726561647920616e2041646d696e0000000000815250610650565b6040518060400160405280602081526020017f41646d696e206163636f756e74206164646564207375636365737366756c6c798152505b90507f7de09b89cd6310ad2dbbef9b99bee3df114399d19b156a3dc6afb8f5ff60781a8287858151811061068757610686610c80565b5b60200260200101518360405161069f93929190610a3d565b60405180910390a18380156106b15750815b935050505b5b80806106c290610bd9565b915050610465565b5080915050919050565b600080600160008473ffffffffffffffffffffffffffffffffffffffff1673ffffffffffffffffffffffffffffffffffffffff1681526020019081526020016000205414159050919050565b600080600160008473ffffffffffffffffffffffffffffffffffffffff1673ffffffffffffffffffffffffffffffffffffffff16815260200190815260200160002054141561081e576000829080600181540180825580915050600190039060005260206000200160009091909190916101000a81548173ffffffffffffffffffffffffffffffffffffffff021916908373ffffffffffffffffffffffffffffffffffffffff160217905550600080549050600160008473ffffffffffffffffffffffffffffffffffffffff1673ffffffffffffffffffffffffffffffffffffffff1681526020019081526020016000208190555060019050610823565b600090505b919050565b60008080549050905090565b60008135905061084381610d51565b92915050565b60008083601f84011261085f5761085e610cb4565b5b8235905067ffffffffffffffff81111561087c5761087b610caf565b5b60208301915083602082028301111561089857610897610cb9565b5b9250929050565b6000813590506108ae81610d68565b92915050565b6000602082840312156108ca576108c9610cc3565b5b60006108d884828501610834565b91505092915050565b600080602083850312156108f8576108f7610cc3565b5b600083013567ffffffffffffffff81111561091657610915610cbe565b5b61092285828601610849565b92509250509250929050565b60006020828403121561094457610943610cc3565b5b60006109528482850161089f565b91505092915050565b61096481610b5e565b82525050565b61097381610b70565b82525050565b600061098482610b0e565b61098e8185610b19565b935061099e818560208601610ba6565b6109a781610cc8565b840191505092915050565b60006109bf601b83610b19565b91506109ca82610cd9565b602082019050919050565b60006109e2602c83610b19565b91506109ed82610d02565b604082019050919050565b610a0181610b9c565b82525050565b6000602082019050610a1c600083018461095b565b92915050565b6000602082019050610a37600083018461096a565b92915050565b6000606082019050610a52600083018661096a565b610a5f602083018561095b565b8181036040830152610a718184610979565b9050949350505050565b6000606082019050610a90600083018561096a565b610a9d602083018461095b565b8181036040830152610aae816109b2565b90509392505050565b6000606082019050610acc600083018561096a565b610ad9602083018461095b565b8181036040830152610aea816109d5565b90509392505050565b6000602082019050610b0860008301846109f8565b92915050565b600081519050919050565b600082825260208201905092915050565b6000610b3582610b9c565b9150610b4083610b9c565b925082821015610b5357610b52610c22565b5b828203905092915050565b6000610b6982610b7c565b9050919050565b60008115159050919050565b600073ffffffffffffffffffffffffffffffffffffffff82169050919050565b6000819050919050565b60005b83811015610bc4578082015181840152602081019050610ba9565b83811115610bd3576000848401525b50505050565b6000610be482610b9c565b91507fffffffffffffffffffffffffffffffffffffffffffffffffffffffffffffffff821415610c1757610c16610c22565b5b600182019050919050565b7f4e487b7100000000000000000000000000000000000000000000000000000000600052601160045260246000fd5b7f4e487b7100000000000000000000000000000000000000000000000000000000600052603160045260246000fd5b7f4e487b7100000000000000000000000000000000000000000000000000000000600052603260045260246000fd5b600080fd5b600080fd5b600080fd5b600080fd5b600080fd5b6000601f19601f8301169050919050565b7f4163636f756e7420697320616c726561647920616e2041646d696e0000000000600082015250565b7f416464696e67206f776e206163636f756e742061732041646d696e206973206e60008201527f6f74207065726d69747465640000000000000000000000000000000000000000602082015250565b610d5a81610b5e565b8114610d6557600080fd5b50565b610d7181610b9c565b8114610d7c57600080fd5b5056fea26469706673582212202301b274d108afdaa69abbe99dc8dcf012154d8b572e2373d00195af007e5e3e64736f6c63430008060033",
  "immutableReferences": {},
  "source": "/*\n * Copyright ConsenSys AG.\n *\n * Licensed under the Apache License, Version 2.0 (the \"License\"); you may not use this file except in compliance with\n * the License. You may obtain a copy of the License at\n *\n * http://www.apache.org/licenses/LICENSE-2.0\n *\n * Unless required by applicable law or agreed to in writing, software distributed under the License is distributed on\n * an \"AS IS\" BASIS, WITHOUT WARRANTIES OR CONDITIONS OF ANY KIND, either express or implied. See the License for the\n * specific language governing permissions and limitations under the License.\n *\n * SPDX-License-Identifier: Apache-2.0\n */\npragma solidity >=0.6.0 <0.9.0;\n\nimport \"./AdminList.sol\";\n\n\n// This class is used as a proxy to allow us to write unit tests.\n// All methods in the original class are internal.\ncontract ExposedAdminList is AdminList {\n    function _size() external view returns (uint256) {\n        return size();\n    }\n\n    function _exists(address _address) external view returns (bool) {\n        return exists(_address);\n    }\n\n    function _add(address _address) external returns (bool) {\n        return add(_address);\n    }\n\n    function _remove(address _address) external returns (bool) {\n        return remove(_address);\n    }\n\n    function _addBatch(address[] calldata _addresses) external returns (bool) {\n        return addAll(_addresses);\n    }\n}\n",
  "sourcePath": "/home/ubuntu/permissioning-smart-contracts/contracts/ExposedAdminList.sol",
  "compiler": {
    "name": "solc",
    "version": "0.8.6+commit.11564f7e.Emscripten.clang"
  },
  "schemaVersion": "3.4.10",
  "updatedAt": "2022-11-14T21:08:03.744Z",
  "devdoc": {
    "kind": "dev",
    "methods": {},
    "version": 1
  },
  "userdoc": {
    "kind": "user",
    "methods": {},
    "version": 1
  }
}