{
  "contractName": "Ingress",
  "abi": [
    {
      "anonymous": false,
      "inputs": [
        {
          "indexed": false,
          "internalType": "address",
          "name": "contractAddress",
          "type": "address"
        },
        {
          "indexed": false,
          "internalType": "bytes32",
          "name": "contractName",
          "type": "bytes32"
        }
      ],
      "name": "RegistryUpdated",
      "type": "event"
    },
    {
      "inputs": [],
      "name": "ADMIN_CONTRACT",
      "outputs": [
        {
          "internalType": "bytes32",
          "name": "",
          "type": "bytes32"
        }
      ],
      "stateMutability": "view",
      "type": "function"
    },
    {
      "inputs": [],
      "name": "RULES_CONTRACT",
      "outputs": [
        {
          "internalType": "bytes32",
          "name": "",
          "type": "bytes32"
        }
      ],
      "stateMutability": "view",
      "type": "function"
    },
    {
      "inputs": [
        {
          "internalType": "bytes32",
          "name": "name",
          "type": "bytes32"
        }
      ],
      "name": "getContractAddress",
      "outputs": [
        {
          "internalType": "address",
          "name": "",
          "type": "address"
        }
      ],
      "stateMutability": "view",
      "type": "function"
    },
    {
      "inputs": [],
      "name": "getSize",
      "outputs": [
        {
          "internalType": "uint256",
          "name": "",
          "type": "uint256"
        }
      ],
      "stateMutability": "view",
      "type": "function"
    },
    {
      "inputs": [
        {
          "internalType": "address",
          "name": "account",
          "type": "address"
        }
      ],
      "name": "isAuthorized",
      "outputs": [
        {
          "internalType": "bool",
          "name": "",
          "type": "bool"
        }
      ],
      "stateMutability": "view",
      "type": "function"
    },
    {
      "inputs": [
        {
          "internalType": "bytes32",
          "name": "name",
          "type": "bytes32"
        },
        {
          "internalType": "address",
          "name": "addr",
          "type": "address"
        }
      ],
      "name": "setContractAddress",
      "outputs": [
        {
          "internalType": "bool",
          "name": "",
          "type": "bool"
        }
      ],
      "stateMutability": "nonpayable",
      "type": "function"
    },
    {
      "inputs": [
        {
          "internalType": "bytes32",
          "name": "_name",
          "type": "bytes32"
        }
      ],
      "name": "removeContract",
      "outputs": [
        {
          "internalType": "bool",
          "name": "",
          "type": "bool"
        }
      ],
      "stateMutability": "nonpayable",
      "type": "function"
    },
    {
      "inputs": [],
      "name": "getAllContractKeys",
      "outputs": [
        {
          "internalType": "bytes32[]",
          "name": "",
          "type": "bytes32[]"
        }
      ],
      "stateMutability": "view",
      "type": "function"
    }
  ],
  "bytecode": "0x60806040527f72756c657300000000000000000000000000000000000000000000000000000060001b6000557f61646d696e697374726174696f6e00000000000000000000000000000000000060001b60015534801561005e57600080fd5b50610f018061006e6000396000f3fe608060405234801561001057600080fd5b50600436106100885760003560e01c8063a43e04d81161005b578063a43e04d814610117578063de8fa43114610147578063e001f84114610165578063fe9fbb801461019557610088565b80630d2020dd1461008d57806310d9042e146100bd57806311601306146100db5780631e7c27cb146100f9575b600080fd5b6100a760048036038101906100a291906108f7565b6101c5565b6040516100b49190610ab1565b60405180910390f35b6100c5610247565b6040516100d29190610af5565b60405180910390f35b6100e361029f565b6040516100f09190610b32565b60405180910390f35b6101016102a5565b60405161010e9190610b32565b60405180910390f35b610131600480360381019061012c91906108f7565b6102ab565b60405161013e9190610b17565b60405180910390f35b61014f610520565b60405161015c9190610bcd565b60405180910390f35b61017f600480360381019061017a9190610924565b61052d565b60405161018c9190610b17565b60405180910390f35b6101af60048036038101906101aa919061089d565b610724565b6040516101bc9190610b17565b60405180910390f35b60008060001b821161020c576040517f08c379a000000000000000000000000000000000000000000000000000000000815260040161020390610bad565b60405180910390fd5b6002600083815260200190815260200160002060009054906101000a900473ffffffffffffffffffffffffffffffffffffffff169050919050565b6060600380548060200260200160405190810160405280929190818152602001828054801561029557602002820191906000526020600020905b815481526020019060010190808311610281575b5050505050905090565b60005481565b60015481565b60008060001b82116102f2576040517f08c379a00000000000000000000000000000000000000000000000000000000081526004016102e990610bad565b60405180910390fd5b60006003805490501161033a576040517f08c379a000000000000000000000000000000000000000000000000000000000815260040161033190610b6d565b60405180910390fd5b61034333610724565b610382576040517f08c379a000000000000000000000000000000000000000000000000000000000815260040161037990610b4d565b60405180910390fd5b6000600460008481526020019081526020016000205490506000811180156103af57506003805490508111155b1561051557600380549050811461043d576000600360016003805490506103d69190610c32565b815481106103e7576103e6610d16565b5b906000526020600020015490508060036001846104049190610c32565b8154811061041557610414610d16565b5b9060005260206000200181905550816004600083815260200190815260200160002081905550505b600380548061044f5761044e610ce7565b5b600190038181906000526020600020016000905590556000600460008581526020019081526020016000208190555060006002600085815260200190815260200160002060006101000a81548173ffffffffffffffffffffffffffffffffffffffff021916908373ffffffffffffffffffffffffffffffffffffffff1602179055507fe3d908a1f6d2467f8e7c8198f30125843211345eedb763beb4cdfb7fe728a5af600084604051610503929190610acc565b60405180910390a1600191505061051b565b60009150505b919050565b6000600380549050905090565b60008060001b8311610574576040517f08c379a000000000000000000000000000000000000000000000000000000000815260040161056b90610bad565b60405180910390fd5b600073ffffffffffffffffffffffffffffffffffffffff168273ffffffffffffffffffffffffffffffffffffffff1614156105e4576040517f08c379a00000000000000000000000000000000000000000000000000000000081526004016105db90610b8d565b60405180910390fd5b6105ed33610724565b61062c576040517f08c379a000000000000000000000000000000000000000000000000000000000815260040161062390610b4d565b60405180910390fd5b60006004600085815260200190815260200160002054141561068f57600383908060018154018082558091505060019003906000526020600020016000909190919091505560038054905060046000858152602001908152602001600020819055505b816002600085815260200190815260200160002060006101000a81548173ffffffffffffffffffffffffffffffffffffffff021916908373ffffffffffffffffffffffffffffffffffffffff1602179055507fe3d908a1f6d2467f8e7c8198f30125843211345eedb763beb4cdfb7fe728a5af8284604051610712929190610acc565b60405180910390a16001905092915050565b60008073ffffffffffffffffffffffffffffffffffffffff1660026000600154815260200190815260200160002060009054906101000a900473ffffffffffffffffffffffffffffffffffffffff1673ffffffffffffffffffffffffffffffffffffffff1614156107985760019050610859565b60026000600154815260200190815260200160002060009054906101000a900473ffffffffffffffffffffffffffffffffffffffff1673ffffffffffffffffffffffffffffffffffffffff1663fe9fbb80836040518263ffffffff1660e01b81526004016108069190610ab1565b60206040518083038186803b15801561081e57600080fd5b505afa158015610832573d6000803e3d6000fd5b505050506040513d601f19601f8201168201806040525081019061085691906108ca565b90505b919050565b60008135905061086d81610e86565b92915050565b60008151905061088281610e9d565b92915050565b60008135905061089781610eb4565b92915050565b6000602082840312156108b3576108b2610d45565b5b60006108c18482850161085e565b91505092915050565b6000602082840312156108e0576108df610d45565b5b60006108ee84828501610873565b91505092915050565b60006020828403121561090d5761090c610d45565b5b600061091b84828501610888565b91505092915050565b6000806040838503121561093b5761093a610d45565b5b600061094985828601610888565b925050602061095a8582860161085e565b9150509250929050565b600061097083836109f8565b60208301905092915050565b61098581610c66565b82525050565b600061099682610bf8565b6109a08185610c10565b93506109ab83610be8565b8060005b838110156109dc5781516109c38882610964565b97506109ce83610c03565b9250506001810190506109af565b5085935050505092915050565b6109f281610c78565b82525050565b610a0181610c84565b82525050565b610a1081610c84565b82525050565b6000610a23602b83610c21565b9150610a2e82610d4a565b604082019050919050565b6000610a46604783610c21565b9150610a5182610d99565b606082019050919050565b6000610a69602283610c21565b9150610a7482610e0e565b604082019050919050565b6000610a8c602083610c21565b9150610a9782610e5d565b602082019050919050565b610aab81610cae565b82525050565b6000602082019050610ac6600083018461097c565b92915050565b6000604082019050610ae1600083018561097c565b610aee6020830184610a07565b9392505050565b60006020820190508181036000830152610b0f818461098b565b905092915050565b6000602082019050610b2c60008301846109e9565b92915050565b6000602082019050610b476000830184610a07565b92915050565b60006020820190508181036000830152610b6681610a16565b9050919050565b60006020820190508181036000830152610b8681610a39565b9050919050565b60006020820190508181036000830152610ba681610a5c565b9050919050565b60006020820190508181036000830152610bc681610a7f565b9050919050565b6000602082019050610be26000830184610aa2565b92915050565b6000819050602082019050919050565b600081519050919050565b6000602082019050919050565b600082825260208201905092915050565b600082825260208201905092915050565b6000610c3d82610cae565b9150610c4883610cae565b925082821015610c5b57610c5a610cb8565b5b828203905092915050565b6000610c7182610c8e565b9050919050565b60008115159050919050565b6000819050919050565b600073ffffffffffffffffffffffffffffffffffffffff82169050919050565b6000819050919050565b7f4e487b7100000000000000000000000000000000000000000000000000000000600052601160045260246000fd5b7f4e487b7100000000000000000000000000000000000000000000000000000000600052603160045260246000fd5b7f4e487b7100000000000000000000000000000000000000000000000000000000600052603260045260246000fd5b600080fd5b7f4e6f7420617574686f72697a656420746f2075706461746520636f6e7472616360008201527f742072656769737472792e000000000000000000000000000000000000000000602082015250565b7f4d7573742068617665206174206c65617374206f6e652072656769737465726560008201527f6420636f6e747261637420746f20657865637574652064656c657465206f706560208201527f726174696f6e2e00000000000000000000000000000000000000000000000000604082015250565b7f436f6e74726163742061646472657373206d757374206e6f74206265207a657260008201527f6f2e000000000000000000000000000000000000000000000000000000000000602082015250565b7f436f6e7472616374206e616d65206d757374206e6f7420626520656d7074792e600082015250565b610e8f81610c66565b8114610e9a57600080fd5b50565b610ea681610c78565b8114610eb157600080fd5b50565b610ebd81610c84565b8114610ec857600080fd5b5056fea26469706673582212205ee794188bfe61c690a1df5b95424f56d6b4baaf0b2a64d1c7b57bf687f71d5264736f6c63430008060033",
  "immutableReferences": {},
  "source": "/*\n * Copyright ConsenSys AG.\n *\n * Licensed under the Apache License, Version 2.0 (the \"License\"); you may not use this file except in compliance with\n * the License. You may obtain a copy of the License at\n *\n * http://www.apache.org/licenses/LICENSE-2.0\n *\n * Unless required by applicable law or agreed to in writing, software distributed under the License is distributed on\n * an \"AS IS\" BASIS, WITHOUT WARRANTIES OR CONDITIONS OF ANY KIND, either express or implied. See the License for the\n * specific language governing permissions and limitations under the License.\n *\n * SPDX-License-Identifier: Apache-2.0\n */\npragma solidity >=0.6.0 <0.9.0;\n\nimport \"./AdminProxy.sol\";\n\n\ncontract Ingress {\n    // Contract keys\n    bytes32 public RULES_CONTRACT = 0x72756c6573000000000000000000000000000000000000000000000000000000; // \"rules\"\n    bytes32 public ADMIN_CONTRACT = 0x61646d696e697374726174696f6e000000000000000000000000000000000000; // \"administration\"\n\n    // Registry mapping indexing\n    mapping(bytes32 => address) internal registry;\n\n    bytes32[] internal contractKeys;\n    mapping (bytes32 => uint256) internal indexOf; //1 based indexing. 0 means non-existent\n\n    event RegistryUpdated(\n        address contractAddress,\n        bytes32 contractName\n    );\n\n    function getContractAddress(bytes32 name) public view returns(address) {\n        require(name > 0, \"Contract name must not be empty.\");\n        return registry[name];\n    }\n\n    function getSize() external view returns (uint256) {\n        return contractKeys.length;\n    }\n\n    function isAuthorized(address account) public view returns(bool) {\n        if (registry[ADMIN_CONTRACT] == address(0)) {\n            return true;\n        } else {\n            return AdminProxy(registry[ADMIN_CONTRACT]).isAuthorized(account);\n        }\n    }\n\n    function setContractAddress(bytes32 name, address addr) external returns (bool) {\n        require(name > 0, \"Contract name must not be empty.\");\n        require(addr != address(0), \"Contract address must not be zero.\");\n        require(isAuthorized(msg.sender), \"Not authorized to update contract registry.\");\n\n        if (indexOf[name] == 0) {\n            contractKeys.push(name);\n            indexOf[name] = contractKeys.length;\n        }\n\n        registry[name] = addr;\n\n        emit RegistryUpdated(addr, name);\n\n        return true;\n    }\n\n    function removeContract(bytes32 _name) external returns(bool) {\n        require(_name > 0, \"Contract name must not be empty.\");\n        require(contractKeys.length > 0, \"Must have at least one registered contract to execute delete operation.\");\n        require(isAuthorized(msg.sender), \"Not authorized to update contract registry.\");\n\n        uint256 index = indexOf[_name];\n        if (index > 0 && index <= contractKeys.length) { //1-based indexing\n            //move last address into index being vacated (unless we are dealing with last index)\n            if (index != contractKeys.length) {\n                bytes32 lastKey = contractKeys[contractKeys.length - 1];\n                contractKeys[index - 1] = lastKey;\n                indexOf[lastKey] = index;\n            }\n\n            //shrink contract keys array\n            contractKeys.pop();\n            indexOf[_name] = 0;\n            registry[_name] = address(0);\n            emit RegistryUpdated(address(0), _name);\n            return true;\n        }\n        return false;\n    }\n\n    function getAllContractKeys() external view returns(bytes32[] memory) {\n        return contractKeys; // mythx-disable-line SWC-128\n    }\n}\n",
  "sourcePath": "/home/ubuntu/permissioning-smart-contracts/contracts/Ingress.sol",
  "compiler": {
    "name": "solc",
    "version": "0.8.6+commit.11564f7e.Emscripten.clang"
  },
  "schemaVersion": "3.4.10",
  "updatedAt": "2022-11-14T21:08:03.750Z",
  "devdoc": {
    "kind": "dev",
    "methods": {},
    "version": 1
  },
  "userdoc": {
    "kind": "user",
    "methods": {},
    "version": 1
  }
}