{
  "contractName": "NodeRules",
  "abi": [
    {
      "inputs": [
        {
          "internalType": "contract NodeIngress",
          "name": "_nodeIngressAddress",
          "type": "address"
        },
        {
          "internalType": "contract NodeStorage",
          "name": "_storage",
          "type": "address"
        }
      ],
      "stateMutability": "nonpayable",
      "type": "constructor"
    },
    {
      "anonymous": false,
      "inputs": [
        {
          "indexed": false,
          "internalType": "bool",
          "name": "nodeAdded",
          "type": "bool"
        },
        {
          "indexed": false,
          "internalType": "string",
          "name": "enodeId",
          "type": "string"
        },
        {
          "indexed": false,
          "internalType": "string",
          "name": "enodeHost",
          "type": "string"
        },
        {
          "indexed": false,
          "internalType": "uint16",
          "name": "enodePort",
          "type": "uint16"
        }
      ],
      "name": "NodeAdded",
      "type": "event"
    },
    {
      "anonymous": false,
      "inputs": [
        {
          "indexed": false,
          "internalType": "bool",
          "name": "nodeRemoved",
          "type": "bool"
        },
        {
          "indexed": false,
          "internalType": "string",
          "name": "enodeId",
          "type": "string"
        },
        {
          "indexed": false,
          "internalType": "string",
          "name": "enodeHost",
          "type": "string"
        },
        {
          "indexed": false,
          "internalType": "uint16",
          "name": "enodePort",
          "type": "uint16"
        }
      ],
      "name": "NodeRemoved",
      "type": "event"
    },
    {
      "inputs": [
        {
          "internalType": "string",
          "name": "_enodeId",
          "type": "string"
        },
        {
          "internalType": "string",
          "name": "_host",
          "type": "string"
        },
        {
          "internalType": "uint16",
          "name": "_port",
          "type": "uint16"
        }
      ],
      "name": "calculateKey",
      "outputs": [
        {
          "internalType": "uint256",
          "name": "",
          "type": "uint256"
        }
      ],
      "stateMutability": "view",
      "type": "function",
      "constant": true
    },
    {
      "inputs": [
        {
          "internalType": "uint256",
          "name": "index",
          "type": "uint256"
        }
      ],
      "name": "getByIndex",
      "outputs": [
        {
          "internalType": "string",
          "name": "enodeId",
          "type": "string"
        },
        {
          "internalType": "string",
          "name": "host",
          "type": "string"
        },
        {
          "internalType": "uint16",
          "name": "port",
          "type": "uint16"
        }
      ],
      "stateMutability": "view",
      "type": "function",
      "constant": true
    },
    {
      "inputs": [],
      "name": "getContractVersion",
      "outputs": [
        {
          "internalType": "uint256",
          "name": "",
          "type": "uint256"
        }
      ],
      "stateMutability": "view",
      "type": "function",
      "constant": true
    },
    {
      "inputs": [],
      "name": "isReadOnly",
      "outputs": [
        {
          "internalType": "bool",
          "name": "",
          "type": "bool"
        }
      ],
      "stateMutability": "view",
      "type": "function",
      "constant": true
    },
    {
      "inputs": [],
      "name": "enterReadOnly",
      "outputs": [
        {
          "internalType": "bool",
          "name": "",
          "type": "bool"
        }
      ],
      "stateMutability": "nonpayable",
      "type": "function"
    },
    {
      "inputs": [],
      "name": "exitReadOnly",
      "outputs": [
        {
          "internalType": "bool",
          "name": "",
          "type": "bool"
        }
      ],
      "stateMutability": "nonpayable",
      "type": "function"
    },
    {
      "inputs": [
        {
          "internalType": "string",
          "name": "enodeId",
          "type": "string"
        },
        {
          "internalType": "string",
          "name": "enodeHost",
          "type": "string"
        },
        {
          "internalType": "uint16",
          "name": "enodePort",
          "type": "uint16"
        }
      ],
      "name": "connectionAllowed",
      "outputs": [
        {
          "internalType": "bool",
          "name": "",
          "type": "bool"
        }
      ],
      "stateMutability": "view",
      "type": "function",
      "constant": true
    },
    {
      "inputs": [
        {
          "internalType": "string",
          "name": "enodeId",
          "type": "string"
        },
        {
          "internalType": "string",
          "name": "host",
          "type": "string"
        },
        {
          "internalType": "uint16",
          "name": "port",
          "type": "uint16"
        }
      ],
      "name": "enodePermitted",
      "outputs": [
        {
          "internalType": "bool",
          "name": "",
          "type": "bool"
        }
      ],
      "stateMutability": "view",
      "type": "function",
      "constant": true
    },
    {
      "inputs": [
        {
          "internalType": "string",
          "name": "enodeId",
          "type": "string"
        },
        {
          "internalType": "string",
          "name": "host",
          "type": "string"
        },
        {
          "internalType": "uint16",
          "name": "port",
          "type": "uint16"
        }
      ],
      "name": "addEnode",
      "outputs": [
        {
          "internalType": "bool",
          "name": "",
          "type": "bool"
        }
      ],
      "stateMutability": "nonpayable",
      "type": "function"
    },
    {
      "inputs": [
        {
          "internalType": "string",
          "name": "enodeId",
          "type": "string"
        },
        {
          "internalType": "string",
          "name": "host",
          "type": "string"
        },
        {
          "internalType": "uint16",
          "name": "port",
          "type": "uint16"
        }
      ],
      "name": "removeEnode",
      "outputs": [
        {
          "internalType": "bool",
          "name": "",
          "type": "bool"
        }
      ],
      "stateMutability": "nonpayable",
      "type": "function"
    },
    {
      "inputs": [],
      "name": "getSize",
      "outputs": [
        {
          "internalType": "uint256",
          "name": "",
          "type": "uint256"
        }
      ],
      "stateMutability": "view",
      "type": "function",
      "constant": true
    },
    {
      "inputs": [
        {
          "internalType": "bool",
          "name": "addsRestrictions",
          "type": "bool"
        }
      ],
      "name": "triggerRulesChangeEvent",
      "outputs": [],
      "stateMutability": "nonpayable",
      "type": "function"
    },
    {
      "inputs": [
        {
          "internalType": "bool",
          "name": "_onlyUseEnodeId",
          "type": "bool"
        }
      ],
      "name": "activateValidationEnodeIdOnly",
      "outputs": [
        {
          "internalType": "bool",
          "name": "",
          "type": "bool"
        }
      ],
      "stateMutability": "nonpayable",
      "type": "function"
    }
  ],
  "bytecode": "0x608060405260008060146101000a81548160ff021916908315150217905550622dc6c06001553480156200003257600080fd5b50604051620026e7380380620026e7833981810160405281019062000058919062000123565b6200006981620000b260201b60201c565b81600260006101000a81548173ffffffffffffffffffffffffffffffffffffffff021916908373ffffffffffffffffffffffffffffffffffffffff1602179055505050620001ff565b806000806101000a81548173ffffffffffffffffffffffffffffffffffffffff021916908373ffffffffffffffffffffffffffffffffffffffff16021790555050565b6000815190506200010681620001cb565b92915050565b6000815190506200011d81620001e5565b92915050565b600080604083850312156200013d576200013c620001c6565b5b60006200014d85828601620000f5565b925050602062000160858286016200010c565b9150509250929050565b60006200017782620001a6565b9050919050565b60006200018b826200016a565b9050919050565b60006200019f826200016a565b9050919050565b600073ffffffffffffffffffffffffffffffffffffffff82169050919050565b600080fd5b620001d6816200017e565b8114620001e257600080fd5b50565b620001f08162000192565b8114620001fc57600080fd5b50565b6124d8806200020f6000396000f3fe608060405234801561001057600080fd5b50600436106100cf5760003560e01c806388c3ca4e1161008c578063cc3a1c4111610066578063cc3a1c4114610262578063d8cec9251461027e578063dc2a60f61461029c578063de8fa431146102ba576100cf565b806388c3ca4e146101e45780638aa1043514610214578063b8debb1b14610232576100cf565b80630c6e35d5146100d457806328a4a078146100f25780632c691356146101225780632d883a731461015257806339d6dd011461018457806345a59e5b146101b4575b600080fd5b6100dc6102d8565b6040516100e99190611fe6565b60405180910390f35b61010c60048036038101906101079190611c66565b6105d7565b6040516101199190611fe6565b60405180910390f35b61013c60048036038101906101379190611bdf565b6109a5565b6040516101499190611fe6565b60405180910390f35b61016c60048036038101906101679190611e11565b610c8d565b60405161017b93929190612073565b60405180910390f35b61019e60048036038101906101999190611c66565b610d4e565b6040516101ab9190611fe6565b60405180910390f35b6101ce60048036038101906101c99190611c66565b61111c565b6040516101db9190611fe6565b60405180910390f35b6101fe60048036038101906101f99190611cfb565b6111bc565b60405161020b9190611fe6565b60405180910390f35b61021c6111d2565b6040516102299190612158565b60405180910390f35b61024c60048036038101906102479190611cfb565b6111dc565b6040516102599190612158565b60405180910390f35b61027c60048036038101906102779190611bdf565b611295565b005b610286611325565b6040516102939190611fe6565b60405180910390f35b6102a4611625565b6040516102b19190611fe6565b60405180910390f35b6102c261163b565b6040516102cf9190612158565b60405180910390f35b600080600260009054906101000a900473ffffffffffffffffffffffffffffffffffffffff1673ffffffffffffffffffffffffffffffffffffffff16630d2020dd600260009054906101000a900473ffffffffffffffffffffffffffffffffffffffff1673ffffffffffffffffffffffffffffffffffffffff16631e7c27cb6040518163ffffffff1660e01b815260040160206040518083038186803b15801561038157600080fd5b505afa158015610395573d6000803e3d6000fd5b505050506040513d601f19601f820116820180604052508101906103b99190611c39565b6040518263ffffffff1660e01b81526004016103d59190612058565b60206040518083038186803b1580156103ed57600080fd5b505afa158015610401573d6000803e3d6000fd5b505050506040513d601f19601f820116820180604052508101906104259190611bb2565b9050600073ffffffffffffffffffffffffffffffffffffffff168173ffffffffffffffffffffffffffffffffffffffff161415610497576040517f08c379a000000000000000000000000000000000000000000000000000000000815260040161048e90612118565b60405180910390fd5b8073ffffffffffffffffffffffffffffffffffffffff1663fe9fbb80336040518263ffffffff1660e01b81526004016104d09190611fcb565b60206040518083038186803b1580156104e857600080fd5b505afa1580156104fc573d6000803e3d6000fd5b505050506040513d601f19601f820116820180604052508101906105209190611c0c565b61055f576040517f08c379a0000000000000000000000000000000000000000000000000000000008152600401610556906120b8565b60405180910390fd5b60011515600060149054906101000a900460ff161515146105b5576040517f08c379a00000000000000000000000000000000000000000000000000000000081526004016105ac90612138565b60405180910390fd5b60008060146101000a81548160ff021916908315150217905550600191505090565b600080600260009054906101000a900473ffffffffffffffffffffffffffffffffffffffff1673ffffffffffffffffffffffffffffffffffffffff16630d2020dd600260009054906101000a900473ffffffffffffffffffffffffffffffffffffffff1673ffffffffffffffffffffffffffffffffffffffff16631e7c27cb6040518163ffffffff1660e01b815260040160206040518083038186803b15801561068057600080fd5b505afa158015610694573d6000803e3d6000fd5b505050506040513d601f19601f820116820180604052508101906106b89190611c39565b6040518263ffffffff1660e01b81526004016106d49190612058565b60206040518083038186803b1580156106ec57600080fd5b505afa158015610700573d6000803e3d6000fd5b505050506040513d601f19601f820116820180604052508101906107249190611bb2565b9050600073ffffffffffffffffffffffffffffffffffffffff168173ffffffffffffffffffffffffffffffffffffffff161415610796576040517f08c379a000000000000000000000000000000000000000000000000000000000815260040161078d90612118565b60405180910390fd5b8073ffffffffffffffffffffffffffffffffffffffff1663fe9fbb80336040518263ffffffff1660e01b81526004016107cf9190611fcb565b60206040518083038186803b1580156107e757600080fd5b505afa1580156107fb573d6000803e3d6000fd5b505050506040513d601f19601f8201168201806040525081019061081f9190611c0c565b61085e576040517f08c379a0000000000000000000000000000000000000000000000000000000008152600401610855906120b8565b60405180910390fd5b600060149054906101000a900460ff16156108ae576040517f08c379a00000000000000000000000000000000000000000000000000000000081526004016108a5906120f8565b60405180910390fd5b600061094388888080601f016020809104026020016040519081016040528093929190818152602001838380828437600081840152601f19601f8201169050808301925050505050505087878080601f016020809104026020016040519081016040528093929190818152602001838380828437600081840152601f19601f820116905080830192505050505050508661164a565b90508015610956576109556001611295565b5b7fb89b69e57dc9a29151753246bd70dbee9bb40db42ff72e5cff56eee65cc7c9cf81898989898960405161098f96959493929190612001565b60405180910390a1809250505095945050505050565b600080600260009054906101000a900473ffffffffffffffffffffffffffffffffffffffff1673ffffffffffffffffffffffffffffffffffffffff16630d2020dd600260009054906101000a900473ffffffffffffffffffffffffffffffffffffffff1673ffffffffffffffffffffffffffffffffffffffff16631e7c27cb6040518163ffffffff1660e01b815260040160206040518083038186803b158015610a4e57600080fd5b505afa158015610a62573d6000803e3d6000fd5b505050506040513d601f19601f82011682018060405250810190610a869190611c39565b6040518263ffffffff1660e01b8152600401610aa29190612058565b60206040518083038186803b158015610aba57600080fd5b505afa158015610ace573d6000803e3d6000fd5b505050506040513d601f19601f82011682018060405250810190610af29190611bb2565b9050600073ffffffffffffffffffffffffffffffffffffffff168173ffffffffffffffffffffffffffffffffffffffff161415610b64576040517f08c379a0000000000000000000000000000000000000000000000000000000008152600401610b5b90612118565b60405180910390fd5b8073ffffffffffffffffffffffffffffffffffffffff1663fe9fbb80336040518263ffffffff1660e01b8152600401610b9d9190611fcb565b60206040518083038186803b158015610bb557600080fd5b505afa158015610bc9573d6000803e3d6000fd5b505050506040513d601f19601f82011682018060405250810190610bed9190611c0c565b610c2c576040517f08c379a0000000000000000000000000000000000000000000000000000000008152600401610c23906120b8565b60405180910390fd5b600060149054906101000a900460ff1615610c7c576040517f08c379a0000000000000000000000000000000000000000000000000000000008152600401610c73906120f8565b60405180910390fd5b610c8583611705565b915050919050565b60608060008060009054906101000a900473ffffffffffffffffffffffffffffffffffffffff1673ffffffffffffffffffffffffffffffffffffffff16632d883a73856040518263ffffffff1660e01b8152600401610cec9190612158565b60006040518083038186803b158015610d0457600080fd5b505afa158015610d18573d6000803e3d6000fd5b505050506040513d6000823e3d601f19601f82011682018060405250810190610d419190611d86565b9250925092509193909250565b600080600260009054906101000a900473ffffffffffffffffffffffffffffffffffffffff1673ffffffffffffffffffffffffffffffffffffffff16630d2020dd600260009054906101000a900473ffffffffffffffffffffffffffffffffffffffff1673ffffffffffffffffffffffffffffffffffffffff16631e7c27cb6040518163ffffffff1660e01b815260040160206040518083038186803b158015610df757600080fd5b505afa158015610e0b573d6000803e3d6000fd5b505050506040513d601f19601f82011682018060405250810190610e2f9190611c39565b6040518263ffffffff1660e01b8152600401610e4b9190612058565b60206040518083038186803b158015610e6357600080fd5b505afa158015610e77573d6000803e3d6000fd5b505050506040513d601f19601f82011682018060405250810190610e9b9190611bb2565b9050600073ffffffffffffffffffffffffffffffffffffffff168173ffffffffffffffffffffffffffffffffffffffff161415610f0d576040517f08c379a0000000000000000000000000000000000000000000000000000000008152600401610f0490612118565b60405180910390fd5b8073ffffffffffffffffffffffffffffffffffffffff1663fe9fbb80336040518263ffffffff1660e01b8152600401610f469190611fcb565b60206040518083038186803b158015610f5e57600080fd5b505afa158015610f72573d6000803e3d6000fd5b505050506040513d601f19601f82011682018060405250810190610f969190611c0c565b610fd5576040517f08c379a0000000000000000000000000000000000000000000000000000000008152600401610fcc906120b8565b60405180910390fd5b600060149054906101000a900460ff1615611025576040517f08c379a000000000000000000000000000000000000000000000000000000000815260040161101c906120f8565b60405180910390fd5b60006110ba88888080601f016020809104026020016040519081016040528093929190818152602001838380828437600081840152601f19601f8201169050808301925050505050505087878080601f016020809104026020016040519081016040528093929190818152602001838380828437600081840152601f19601f82011690508083019250505050505050866117ba565b905080156110cd576110cc6000611295565b5b7f6b59c0af929c53469d134f314ec8a11127a2c7831cc7b3b6bc78c40ace3801eb81898989898960405161110696959493929190612001565b60405180910390a1809250505095945050505050565b60006111b186868080601f016020809104026020016040519081016040528093929190818152602001838380828437600081840152601f19601f8201169050808301925050505050505085858080601f016020809104026020016040519081016040528093929190818152602001838380828437600081840152601f19601f82011690508083019250505050505050846111bc565b905095945050505050565b60006111c9848484611875565b90509392505050565b6000600154905090565b60008060009054906101000a900473ffffffffffffffffffffffffffffffffffffffff1673ffffffffffffffffffffffffffffffffffffffff1663b8debb1b8585856040518463ffffffff1660e01b815260040161123c93929190612073565b60206040518083038186803b15801561125457600080fd5b505afa158015611268573d6000803e3d6000fd5b505050506040513d601f19601f8201168201806040525081019061128c9190611e3e565b90509392505050565b600260009054906101000a900473ffffffffffffffffffffffffffffffffffffffff1673ffffffffffffffffffffffffffffffffffffffff16634dc3fefc826040518263ffffffff1660e01b81526004016112f09190611fe6565b600060405180830381600087803b15801561130a57600080fd5b505af115801561131e573d6000803e3d6000fd5b5050505050565b600080600260009054906101000a900473ffffffffffffffffffffffffffffffffffffffff1673ffffffffffffffffffffffffffffffffffffffff16630d2020dd600260009054906101000a900473ffffffffffffffffffffffffffffffffffffffff1673ffffffffffffffffffffffffffffffffffffffff16631e7c27cb6040518163ffffffff1660e01b815260040160206040518083038186803b1580156113ce57600080fd5b505afa1580156113e2573d6000803e3d6000fd5b505050506040513d601f19601f820116820180604052508101906114069190611c39565b6040518263ffffffff1660e01b81526004016114229190612058565b60206040518083038186803b15801561143a57600080fd5b505afa15801561144e573d6000803e3d6000fd5b505050506040513d601f19601f820116820180604052508101906114729190611bb2565b9050600073ffffffffffffffffffffffffffffffffffffffff168173ffffffffffffffffffffffffffffffffffffffff1614156114e4576040517f08c379a00000000000000000000000000000000000000000000000000000000081526004016114db90612118565b60405180910390fd5b8073ffffffffffffffffffffffffffffffffffffffff1663fe9fbb80336040518263ffffffff1660e01b815260040161151d9190611fcb565b60206040518083038186803b15801561153557600080fd5b505afa158015611549573d6000803e3d6000fd5b505050506040513d601f19601f8201168201806040525081019061156d9190611c0c565b6115ac576040517f08c379a00000000000000000000000000000000000000000000000000000000081526004016115a3906120b8565b60405180910390fd5b60001515600060149054906101000a900460ff16151514611602576040517f08c379a00000000000000000000000000000000000000000000000000000000081526004016115f9906120d8565b60405180910390fd5b6001600060146101000a81548160ff021916908315150217905550600191505090565b60008060149054906101000a900460ff16905090565b600061164561192e565b905090565b60008060009054906101000a900473ffffffffffffffffffffffffffffffffffffffff1673ffffffffffffffffffffffffffffffffffffffff1663da85216c8585856040518463ffffffff1660e01b81526004016116aa93929190612073565b602060405180830381600087803b1580156116c457600080fd5b505af11580156116d8573d6000803e3d6000fd5b505050506040513d601f19601f820116820180604052508101906116fc9190611c0c565b90509392505050565b60008060009054906101000a900473ffffffffffffffffffffffffffffffffffffffff1673ffffffffffffffffffffffffffffffffffffffff1663320ce9ed836040518263ffffffff1660e01b81526004016117619190611fe6565b602060405180830381600087803b15801561177b57600080fd5b505af115801561178f573d6000803e3d6000fd5b505050506040513d601f19601f820116820180604052508101906117b39190611c0c565b9050919050565b60008060009054906101000a900473ffffffffffffffffffffffffffffffffffffffff1673ffffffffffffffffffffffffffffffffffffffff1663f49b92238585856040518463ffffffff1660e01b815260040161181a93929190612073565b602060405180830381600087803b15801561183457600080fd5b505af1158015611848573d6000803e3d6000fd5b505050506040513d601f19601f8201168201806040525081019061186c9190611c0c565b90509392505050565b60008060009054906101000a900473ffffffffffffffffffffffffffffffffffffffff1673ffffffffffffffffffffffffffffffffffffffff166347c065cd8585856040518463ffffffff1660e01b81526004016118d593929190612073565b60206040518083038186803b1580156118ed57600080fd5b505afa158015611901573d6000803e3d6000fd5b505050506040513d601f19601f820116820180604052508101906119259190611c0c565b90509392505050565b60008060009054906101000a900473ffffffffffffffffffffffffffffffffffffffff1673ffffffffffffffffffffffffffffffffffffffff1663949d225d6040518163ffffffff1660e01b815260040160206040518083038186803b15801561199757600080fd5b505afa1580156119ab573d6000803e3d6000fd5b505050506040513d601f19601f820116820180604052508101906119cf9190611e3e565b905090565b60006119e76119e284612198565b612173565b905082815260208101848484011115611a0357611a026122f6565b5b611a0e848285612245565b509392505050565b6000611a29611a2484612198565b612173565b905082815260208101848484011115611a4557611a446122f6565b5b611a50848285612254565b509392505050565b600081519050611a678161242f565b92915050565b600081359050611a7c81612446565b92915050565b600081519050611a9181612446565b92915050565b600081519050611aa68161245d565b92915050565b60008083601f840112611ac257611ac16122ec565b5b8235905067ffffffffffffffff811115611adf57611ade6122e7565b5b602083019150836001820283011115611afb57611afa6122f1565b5b9250929050565b600082601f830112611b1757611b166122ec565b5b8135611b278482602086016119d4565b91505092915050565b600082601f830112611b4557611b446122ec565b5b8151611b55848260208601611a16565b91505092915050565b600081359050611b6d81612474565b92915050565b600081519050611b8281612474565b92915050565b600081359050611b978161248b565b92915050565b600081519050611bac8161248b565b92915050565b600060208284031215611bc857611bc7612300565b5b6000611bd684828501611a58565b91505092915050565b600060208284031215611bf557611bf4612300565b5b6000611c0384828501611a6d565b91505092915050565b600060208284031215611c2257611c21612300565b5b6000611c3084828501611a82565b91505092915050565b600060208284031215611c4f57611c4e612300565b5b6000611c5d84828501611a97565b91505092915050565b600080600080600060608688031215611c8257611c81612300565b5b600086013567ffffffffffffffff811115611ca057611c9f6122fb565b5b611cac88828901611aac565b9550955050602086013567ffffffffffffffff811115611ccf57611cce6122fb565b5b611cdb88828901611aac565b93509350506040611cee88828901611b5e565b9150509295509295909350565b600080600060608486031215611d1457611d13612300565b5b600084013567ffffffffffffffff811115611d3257611d316122fb565b5b611d3e86828701611b02565b935050602084013567ffffffffffffffff811115611d5f57611d5e6122fb565b5b611d6b86828701611b02565b9250506040611d7c86828701611b5e565b9150509250925092565b600080600060608486031215611d9f57611d9e612300565b5b600084015167ffffffffffffffff811115611dbd57611dbc6122fb565b5b611dc986828701611b30565b935050602084015167ffffffffffffffff811115611dea57611de96122fb565b5b611df686828701611b30565b9250506040611e0786828701611b73565b9150509250925092565b600060208284031215611e2757611e26612300565b5b6000611e3584828501611b88565b91505092915050565b600060208284031215611e5457611e53612300565b5b6000611e6284828501611b9d565b91505092915050565b611e74816121e5565b82525050565b611e83816121f7565b82525050565b611e9281612203565b82525050565b6000611ea483856121d4565b9350611eb1838584612245565b611eba83612305565b840190509392505050565b6000611ed0826121c9565b611eda81856121d4565b9350611eea818560208601612254565b611ef381612305565b840191505092915050565b6000611f0b6015836121d4565b9150611f1682612316565b602082019050919050565b6000611f2e6019836121d4565b9150611f398261233f565b602082019050919050565b6000611f51602b836121d4565b9150611f5c82612368565b604082019050919050565b6000611f746034836121d4565b9150611f7f826123b7565b604082019050919050565b6000611f976015836121d4565b9150611fa282612406565b602082019050919050565b611fb68161220d565b82525050565b611fc58161223b565b82525050565b6000602082019050611fe06000830184611e6b565b92915050565b6000602082019050611ffb6000830184611e7a565b92915050565b60006080820190506120166000830189611e7a565b8181036020830152612029818789611e98565b9050818103604083015261203e818587611e98565b905061204d6060830184611fad565b979650505050505050565b600060208201905061206d6000830184611e89565b92915050565b6000606082019050818103600083015261208d8186611ec5565b905081810360208301526120a18185611ec5565b90506120b06040830184611fad565b949350505050565b600060208201905081810360008301526120d181611efe565b9050919050565b600060208201905081810360008301526120f181611f21565b9050919050565b6000602082019050818103600083015261211181611f44565b9050919050565b6000602082019050818103600083015261213181611f67565b9050919050565b6000602082019050818103600083015261215181611f8a565b9050919050565b600060208201905061216d6000830184611fbc565b92915050565b600061217d61218e565b90506121898282612287565b919050565b6000604051905090565b600067ffffffffffffffff8211156121b3576121b26122b8565b5b6121bc82612305565b9050602081019050919050565b600081519050919050565b600082825260208201905092915050565b60006121f08261221b565b9050919050565b60008115159050919050565b6000819050919050565b600061ffff82169050919050565b600073ffffffffffffffffffffffffffffffffffffffff82169050919050565b6000819050919050565b82818337600083830152505050565b60005b83811015612272578082015181840152602081019050612257565b83811115612281576000848401525b50505050565b61229082612305565b810181811067ffffffffffffffff821117156122af576122ae6122b8565b5b80604052505050565b7f4e487b7100000000000000000000000000000000000000000000000000000000600052604160045260246000fd5b600080fd5b600080fd5b600080fd5b600080fd5b600080fd5b600080fd5b6000601f19601f8301169050919050565b7f53656e646572206e6f7420617574686f72697a65640000000000000000000000600082015250565b7f416c726561647920696e2072656164206f6e6c79206d6f646500000000000000600082015250565b7f496e2072656164206f6e6c79206d6f64653a2072756c65732063616e6e6f742060008201527f6265206d6f646966696564000000000000000000000000000000000000000000602082015250565b7f496e677265737320636f6e7472616374206d75737420686176652041646d696e60008201527f20636f6e74726163742072656769737465726564000000000000000000000000602082015250565b7f4e6f7420696e2072656164206f6e6c79206d6f64650000000000000000000000600082015250565b612438816121e5565b811461244357600080fd5b50565b61244f816121f7565b811461245a57600080fd5b50565b61246681612203565b811461247157600080fd5b50565b61247d8161220d565b811461248857600080fd5b50565b6124948161223b565b811461249f57600080fd5b5056fea2646970667358221220159198b2ece7c6a8b4f8a7ee26e8ab9e1e540373bd7181861e8090b04f5fab9d64736f6c63430008060033",
  "immutableReferences": {},
  "source": "/*\n * Copyright ConsenSys AG.\n *\n * Licensed under the Apache License, Version 2.0 (the \"License\"); you may not use this file except in compliance with\n * the License. You may obtain a copy of the License at\n *\n * http://www.apache.org/licenses/LICENSE-2.0\n *\n * Unless required by applicable law or agreed to in writing, software distributed under the License is distributed on\n * an \"AS IS\" BASIS, WITHOUT WARRANTIES OR CONDITIONS OF ANY KIND, either express or implied. See the License for the\n * specific language governing permissions and limitations under the License.\n *\n * SPDX-License-Identifier: Apache-2.0\n */\npragma solidity >=0.6.0 <0.9.0;\n\nimport \"./NodeRulesProxy.sol\";\nimport \"./NodeRulesList.sol\";\nimport \"./NodeIngress.sol\";\nimport \"./Admin.sol\";\n\n\ncontract NodeRules is NodeRulesProxy, NodeRulesList {\n\n    event NodeAdded(\n        bool nodeAdded,\n        string enodeId,\n        string enodeHost,\n        uint16 enodePort\n    );\n\n    event NodeRemoved(\n        bool nodeRemoved,\n        string enodeId,\n        string enodeHost,\n        uint16 enodePort\n    );\n\n    // in read-only mode rules can't be added/removed\n    // this will be used to protect data when upgrading contracts\n    bool private readOnlyMode = false;\n    // version of this contract: semver like 1.2.14 represented like 001002014\n    uint private version = 3000000;\n\n    NodeIngress private nodeIngressContract;\n\n    modifier onlyOnEditMode() {\n        require(!readOnlyMode, \"In read only mode: rules cannot be modified\");\n        _;\n    }\n\n    modifier onlyAdmin() {\n        address adminContractAddress = nodeIngressContract.getContractAddress(nodeIngressContract.ADMIN_CONTRACT());\n\n        require(adminContractAddress != address(0), \"Ingress contract must have Admin contract registered\");\n        require(Admin(adminContractAddress).isAuthorized(msg.sender), \"Sender not authorized\");\n        _;\n    }\n\n    constructor (NodeIngress _nodeIngressAddress, NodeStorage _storage) public {\n        setStorage(_storage);\n        nodeIngressContract = _nodeIngressAddress;\n    }\n\n    // VERSION\n    function getContractVersion() external view returns (uint) {\n        return version;\n    }\n\n    // READ ONLY MODE\n    function isReadOnly() external view returns (bool) {\n        return readOnlyMode;\n    }\n\n    function enterReadOnly() external onlyAdmin returns (bool) {\n        require(readOnlyMode == false, \"Already in read only mode\");\n        readOnlyMode = true;\n        return true;\n    }\n\n    function exitReadOnly() external onlyAdmin returns (bool) {\n        require(readOnlyMode == true, \"Not in read only mode\");\n        readOnlyMode = false;\n        return true;\n    }\n\n    function connectionAllowed(\n        string calldata enodeId,\n        string calldata enodeHost,\n        uint16 enodePort\n    ) external override view returns (bool) {\n        return\n            enodePermitted (\n                enodeId,\n                enodeHost,\n                enodePort\n            );\n    }\n\n    function enodePermitted(\n        string memory enodeId,\n        string memory host,\n        uint16 port\n    ) public view returns (bool) {\n        return exists(enodeId, host, port);\n    }\n\n    function addEnode(\n        string calldata enodeId,\n        string calldata host,\n        uint16 port\n    ) external onlyAdmin onlyOnEditMode returns (bool) {\n        bool added = add(enodeId, host, port);\n\n        if (added) {\n            triggerRulesChangeEvent(false);\n        }\n        emit NodeAdded(\n            added,\n            enodeId,\n            host,\n            port\n        );\n\n        return added;\n    }\n\n    function removeEnode(\n        string calldata enodeId,\n        string calldata host,\n        uint16 port\n    ) external onlyAdmin onlyOnEditMode returns (bool) {\n        bool removed = remove(enodeId, host, port);\n\n        if (removed) {\n            triggerRulesChangeEvent(true);\n        }\n        emit NodeRemoved(\n            removed,\n            enodeId,\n            host,\n            port\n        );\n\n        return removed;\n    }\n\n    function getSize() external view returns (uint) {\n        return size();\n    }\n\n    function triggerRulesChangeEvent(bool addsRestrictions) public {\n        nodeIngressContract.emitRulesChangeEvent(addsRestrictions);\n    }\n\n    function activateValidationEnodeIdOnly(bool _onlyUseEnodeId) external onlyAdmin onlyOnEditMode returns (bool) {\n        return setValidateEnodeIdOnly(_onlyUseEnodeId);\n    }\n}\n",
  "sourcePath": "/home/ubuntu/permissioning-smart-contracts/contracts/NodeRules.sol",
  "compiler": {
    "name": "solc",
    "version": "0.8.6+commit.11564f7e.Emscripten.clang"
  },
  "schemaVersion": "3.4.10",
  "updatedAt": "2022-11-16T00:36:19.477Z",
  "networkType": "ethereum",
  "devdoc": {
    "kind": "dev",
    "methods": {},
    "version": 1
  },
  "userdoc": {
    "kind": "user",
    "methods": {},
    "version": 1
  }
}