{
  "contractName": "NodeIngress",
  "abi": [
    {
      "anonymous": false,
      "inputs": [
        {
          "indexed": false,
          "internalType": "bool",
          "name": "addsRestrictions",
          "type": "bool"
        }
      ],
      "name": "NodePermissionsUpdated",
      "type": "event"
    },
    {
      "anonymous": false,
      "inputs": [
        {
          "indexed": false,
          "internalType": "address",
          "name": "contractAddress",
          "type": "address"
        },
        {
          "indexed": false,
          "internalType": "bytes32",
          "name": "contractName",
          "type": "bytes32"
        }
      ],
      "name": "RegistryUpdated",
      "type": "event"
    },
    {
      "inputs": [],
      "name": "ADMIN_CONTRACT",
      "outputs": [
        {
          "internalType": "bytes32",
          "name": "",
          "type": "bytes32"
        }
      ],
      "stateMutability": "view",
      "type": "function",
      "constant": true
    },
    {
      "inputs": [],
      "name": "RULES_CONTRACT",
      "outputs": [
        {
          "internalType": "bytes32",
          "name": "",
          "type": "bytes32"
        }
      ],
      "stateMutability": "view",
      "type": "function",
      "constant": true
    },
    {
      "inputs": [],
      "name": "getAllContractKeys",
      "outputs": [
        {
          "internalType": "bytes32[]",
          "name": "",
          "type": "bytes32[]"
        }
      ],
      "stateMutability": "view",
      "type": "function",
      "constant": true
    },
    {
      "inputs": [
        {
          "internalType": "bytes32",
          "name": "name",
          "type": "bytes32"
        }
      ],
      "name": "getContractAddress",
      "outputs": [
        {
          "internalType": "address",
          "name": "",
          "type": "address"
        }
      ],
      "stateMutability": "view",
      "type": "function",
      "constant": true
    },
    {
      "inputs": [],
      "name": "getSize",
      "outputs": [
        {
          "internalType": "uint256",
          "name": "",
          "type": "uint256"
        }
      ],
      "stateMutability": "view",
      "type": "function",
      "constant": true
    },
    {
      "inputs": [
        {
          "internalType": "address",
          "name": "account",
          "type": "address"
        }
      ],
      "name": "isAuthorized",
      "outputs": [
        {
          "internalType": "bool",
          "name": "",
          "type": "bool"
        }
      ],
      "stateMutability": "view",
      "type": "function",
      "constant": true
    },
    {
      "inputs": [
        {
          "internalType": "bytes32",
          "name": "_name",
          "type": "bytes32"
        }
      ],
      "name": "removeContract",
      "outputs": [
        {
          "internalType": "bool",
          "name": "",
          "type": "bool"
        }
      ],
      "stateMutability": "nonpayable",
      "type": "function"
    },
    {
      "inputs": [
        {
          "internalType": "bytes32",
          "name": "name",
          "type": "bytes32"
        },
        {
          "internalType": "address",
          "name": "addr",
          "type": "address"
        }
      ],
      "name": "setContractAddress",
      "outputs": [
        {
          "internalType": "bool",
          "name": "",
          "type": "bool"
        }
      ],
      "stateMutability": "nonpayable",
      "type": "function"
    },
    {
      "inputs": [],
      "name": "getContractVersion",
      "outputs": [
        {
          "internalType": "uint256",
          "name": "",
          "type": "uint256"
        }
      ],
      "stateMutability": "view",
      "type": "function",
      "constant": true
    },
    {
      "inputs": [
        {
          "internalType": "bool",
          "name": "addsRestrictions",
          "type": "bool"
        }
      ],
      "name": "emitRulesChangeEvent",
      "outputs": [],
      "stateMutability": "nonpayable",
      "type": "function"
    },
    {
      "inputs": [
        {
          "internalType": "string",
          "name": "enodeId",
          "type": "string"
        },
        {
          "internalType": "string",
          "name": "enodeHost",
          "type": "string"
        },
        {
          "internalType": "uint16",
          "name": "enodePort",
          "type": "uint16"
        }
      ],
      "name": "connectionAllowed",
      "outputs": [
        {
          "internalType": "bool",
          "name": "",
          "type": "bool"
        }
      ],
      "stateMutability": "view",
      "type": "function",
      "constant": true
    }
  ],
  "bytecode": "0x60806040527f72756c657300000000000000000000000000000000000000000000000000000060001b6000557f61646d696e697374726174696f6e00000000000000000000000000000000000060001b600155620f424060055534801561006557600080fd5b5061143e806100756000396000f3fe608060405234801561001057600080fd5b50600436106100a95760003560e01c80634dc3fefc116100715780634dc3fefc146101685780638aa1043514610184578063a43e04d8146101a2578063de8fa431146101d2578063e001f841146101f0578063fe9fbb8014610220576100a9565b80630d2020dd146100ae57806310d9042e146100de57806311601306146100fc5780631e7c27cb1461011a57806345a59e5b14610138575b600080fd5b6100c860048036038101906100c39190610c2f565b610250565b6040516100d59190610edd565b60405180910390f35b6100e66102d2565b6040516100f39190610f21565b60405180910390f35b61010461032a565b6040516101119190610f5e565b60405180910390f35b610122610330565b60405161012f9190610f5e565b60405180910390f35b610152600480360381019061014d9190610c9c565b610336565b60405161015f9190610f43565b60405180910390f35b610182600480360381019061017d9190610bd5565b610450565b005b61018c61052c565b6040516101999190611062565b60405180910390f35b6101bc60048036038101906101b79190610c2f565b610536565b6040516101c99190610f43565b60405180910390f35b6101da6107ab565b6040516101e79190611062565b60405180910390f35b61020a60048036038101906102059190610c5c565b6107b8565b6040516102179190610f43565b60405180910390f35b61023a60048036038101906102359190610ba8565b6109af565b6040516102479190610f43565b60405180910390f35b60008060001b8211610297576040517f08c379a000000000000000000000000000000000000000000000000000000000815260040161028e90611042565b60405180910390fd5b6002600083815260200190815260200160002060009054906101000a900473ffffffffffffffffffffffffffffffffffffffff169050919050565b6060600380548060200260200160405190810160405280929190818152602001828054801561032057602002820191906000526020600020905b81548152602001906001019080831161030c575b5050505050905090565b60005481565b60015481565b60008073ffffffffffffffffffffffffffffffffffffffff1661035a600054610250565b73ffffffffffffffffffffffffffffffffffffffff16141561037f5760009050610447565b600260008054815260200190815260200160002060009054906101000a900473ffffffffffffffffffffffffffffffffffffffff1673ffffffffffffffffffffffffffffffffffffffff166345a59e5b87878787876040518663ffffffff1660e01b81526004016103f4959493929190610f79565b60206040518083038186803b15801561040c57600080fd5b505afa158015610420573d6000803e3d6000fd5b505050506040513d601f19601f820116820180604052508101906104449190610c02565b90505b95945050505050565b3373ffffffffffffffffffffffffffffffffffffffff16600260008054815260200190815260200160002060009054906101000a900473ffffffffffffffffffffffffffffffffffffffff1673ffffffffffffffffffffffffffffffffffffffff16146104f2576040517f08c379a00000000000000000000000000000000000000000000000000000000081526004016104e990610fc2565b60405180910390fd5b7f66120f934b66d52127e448f8e94c2460ea62821335e0dd18e89ed38a4a09b413816040516105219190610f43565b60405180910390a150565b6000600554905090565b60008060001b821161057d576040517f08c379a000000000000000000000000000000000000000000000000000000000815260040161057490611042565b60405180910390fd5b6000600380549050116105c5576040517f08c379a00000000000000000000000000000000000000000000000000000000081526004016105bc90611002565b60405180910390fd5b6105ce336109af565b61060d576040517f08c379a000000000000000000000000000000000000000000000000000000000815260040161060490610fe2565b60405180910390fd5b60006004600084815260200190815260200160002054905060008111801561063a57506003805490508111155b156107a05760038054905081146106c85760006003600160038054905061066191906110c7565b81548110610672576106716111c8565b5b9060005260206000200154905080600360018461068f91906110c7565b815481106106a05761069f6111c8565b5b9060005260206000200181905550816004600083815260200190815260200160002081905550505b60038054806106da576106d9611199565b5b600190038181906000526020600020016000905590556000600460008581526020019081526020016000208190555060006002600085815260200190815260200160002060006101000a81548173ffffffffffffffffffffffffffffffffffffffff021916908373ffffffffffffffffffffffffffffffffffffffff1602179055507fe3d908a1f6d2467f8e7c8198f30125843211345eedb763beb4cdfb7fe728a5af60008460405161078e929190610ef8565b60405180910390a160019150506107a6565b60009150505b919050565b6000600380549050905090565b60008060001b83116107ff576040517f08c379a00000000000000000000000000000000000000000000000000000000081526004016107f690611042565b60405180910390fd5b600073ffffffffffffffffffffffffffffffffffffffff168273ffffffffffffffffffffffffffffffffffffffff16141561086f576040517f08c379a000000000000000000000000000000000000000000000000000000000815260040161086690611022565b60405180910390fd5b610878336109af565b6108b7576040517f08c379a00000000000000000000000000000000000000000000000000000000081526004016108ae90610fe2565b60405180910390fd5b60006004600085815260200190815260200160002054141561091a57600383908060018154018082558091505060019003906000526020600020016000909190919091505560038054905060046000858152602001908152602001600020819055505b816002600085815260200190815260200160002060006101000a81548173ffffffffffffffffffffffffffffffffffffffff021916908373ffffffffffffffffffffffffffffffffffffffff1602179055507fe3d908a1f6d2467f8e7c8198f30125843211345eedb763beb4cdfb7fe728a5af828460405161099d929190610ef8565b60405180910390a16001905092915050565b60008073ffffffffffffffffffffffffffffffffffffffff1660026000600154815260200190815260200160002060009054906101000a900473ffffffffffffffffffffffffffffffffffffffff1673ffffffffffffffffffffffffffffffffffffffff161415610a235760019050610ae4565b60026000600154815260200190815260200160002060009054906101000a900473ffffffffffffffffffffffffffffffffffffffff1673ffffffffffffffffffffffffffffffffffffffff1663fe9fbb80836040518263ffffffff1660e01b8152600401610a919190610edd565b60206040518083038186803b158015610aa957600080fd5b505afa158015610abd573d6000803e3d6000fd5b505050506040513d601f19601f82011682018060405250810190610ae19190610c02565b90505b919050565b600081359050610af8816113ac565b92915050565b600081359050610b0d816113c3565b92915050565b600081519050610b22816113c3565b92915050565b600081359050610b37816113da565b92915050565b60008083601f840112610b5357610b526111fc565b5b8235905067ffffffffffffffff811115610b7057610b6f6111f7565b5b602083019150836001820283011115610b8c57610b8b611201565b5b9250929050565b600081359050610ba2816113f1565b92915050565b600060208284031215610bbe57610bbd61120b565b5b6000610bcc84828501610ae9565b91505092915050565b600060208284031215610beb57610bea61120b565b5b6000610bf984828501610afe565b91505092915050565b600060208284031215610c1857610c1761120b565b5b6000610c2684828501610b13565b91505092915050565b600060208284031215610c4557610c4461120b565b5b6000610c5384828501610b28565b91505092915050565b60008060408385031215610c7357610c7261120b565b5b6000610c8185828601610b28565b9250506020610c9285828601610ae9565b9150509250929050565b600080600080600060608688031215610cb857610cb761120b565b5b600086013567ffffffffffffffff811115610cd657610cd5611206565b5b610ce288828901610b3d565b9550955050602086013567ffffffffffffffff811115610d0557610d04611206565b5b610d1188828901610b3d565b93509350506040610d2488828901610b93565b9150509295509295909350565b6000610d3d8383610dc5565b60208301905092915050565b610d52816110fb565b82525050565b6000610d638261108d565b610d6d81856110a5565b9350610d788361107d565b8060005b83811015610da9578151610d908882610d31565b9750610d9b83611098565b925050600181019050610d7c565b5085935050505092915050565b610dbf8161110d565b82525050565b610dce81611119565b82525050565b610ddd81611119565b82525050565b6000610def83856110b6565b9350610dfc83858461115b565b610e0583611210565b840190509392505050565b6000610e1d6033836110b6565b9150610e2882611221565b604082019050919050565b6000610e40602b836110b6565b9150610e4b82611270565b604082019050919050565b6000610e636047836110b6565b9150610e6e826112bf565b606082019050919050565b6000610e866022836110b6565b9150610e9182611334565b604082019050919050565b6000610ea96020836110b6565b9150610eb482611383565b602082019050919050565b610ec881611123565b82525050565b610ed781611151565b82525050565b6000602082019050610ef26000830184610d49565b92915050565b6000604082019050610f0d6000830185610d49565b610f1a6020830184610dd4565b9392505050565b60006020820190508181036000830152610f3b8184610d58565b905092915050565b6000602082019050610f586000830184610db6565b92915050565b6000602082019050610f736000830184610dd4565b92915050565b60006060820190508181036000830152610f94818789610de3565b90508181036020830152610fa9818587610de3565b9050610fb86040830184610ebf565b9695505050505050565b60006020820190508181036000830152610fdb81610e10565b9050919050565b60006020820190508181036000830152610ffb81610e33565b9050919050565b6000602082019050818103600083015261101b81610e56565b9050919050565b6000602082019050818103600083015261103b81610e79565b9050919050565b6000602082019050818103600083015261105b81610e9c565b9050919050565b60006020820190506110776000830184610ece565b92915050565b6000819050602082019050919050565b600081519050919050565b6000602082019050919050565b600082825260208201905092915050565b600082825260208201905092915050565b60006110d282611151565b91506110dd83611151565b9250828210156110f0576110ef61116a565b5b828203905092915050565b600061110682611131565b9050919050565b60008115159050919050565b6000819050919050565b600061ffff82169050919050565b600073ffffffffffffffffffffffffffffffffffffffff82169050919050565b6000819050919050565b82818337600083830152505050565b7f4e487b7100000000000000000000000000000000000000000000000000000000600052601160045260246000fd5b7f4e487b7100000000000000000000000000000000000000000000000000000000600052603160045260246000fd5b7f4e487b7100000000000000000000000000000000000000000000000000000000600052603260045260246000fd5b600080fd5b600080fd5b600080fd5b600080fd5b600080fd5b6000601f19601f8301169050919050565b7f4f6e6c792052756c657320636f6e74726163742063616e20747269676765722060008201527f52756c6573206368616e6765206576656e747300000000000000000000000000602082015250565b7f4e6f7420617574686f72697a656420746f2075706461746520636f6e7472616360008201527f742072656769737472792e000000000000000000000000000000000000000000602082015250565b7f4d7573742068617665206174206c65617374206f6e652072656769737465726560008201527f6420636f6e747261637420746f20657865637574652064656c657465206f706560208201527f726174696f6e2e00000000000000000000000000000000000000000000000000604082015250565b7f436f6e74726163742061646472657373206d757374206e6f74206265207a657260008201527f6f2e000000000000000000000000000000000000000000000000000000000000602082015250565b7f436f6e7472616374206e616d65206d757374206e6f7420626520656d7074792e600082015250565b6113b5816110fb565b81146113c057600080fd5b50565b6113cc8161110d565b81146113d757600080fd5b50565b6113e381611119565b81146113ee57600080fd5b50565b6113fa81611123565b811461140557600080fd5b5056fea264697066735822122097d0ae6dda377446a091f0a121e3bbc900039910238f9540c2815304ba30849364736f6c63430008060033",
  "immutableReferences": {},
  "source": "/*\n * Copyright ConsenSys AG.\n *\n * Licensed under the Apache License, Version 2.0 (the \"License\"); you may not use this file except in compliance with\n * the License. You may obtain a copy of the License at\n *\n * http://www.apache.org/licenses/LICENSE-2.0\n *\n * Unless required by applicable law or agreed to in writing, software distributed under the License is distributed on\n * an \"AS IS\" BASIS, WITHOUT WARRANTIES OR CONDITIONS OF ANY KIND, either express or implied. See the License for the\n * specific language governing permissions and limitations under the License.\n *\n * SPDX-License-Identifier: Apache-2.0\n */\npragma solidity >=0.6.0 <0.9.0;\n\nimport \"./NodeRulesProxy.sol\";\nimport \"./Ingress.sol\";\n\n\ncontract NodeIngress is Ingress {\n    // version of this contract: semver eg 1.2.14 represented like 001002014\n    uint private version = 1000000;\n\n    event NodePermissionsUpdated(\n        bool addsRestrictions\n    );\n\n    function getContractVersion() external view returns(uint) {\n        return version;\n    }\n\n    function emitRulesChangeEvent(bool addsRestrictions) external {\n        require(registry[RULES_CONTRACT] == msg.sender, \"Only Rules contract can trigger Rules change events\");\n        emit NodePermissionsUpdated(addsRestrictions);\n    }\n\n    function connectionAllowed(\n        string calldata enodeId,\n        string calldata enodeHost,\n        uint16 enodePort\n    ) external view returns (bool) {\n        if(getContractAddress(RULES_CONTRACT) == address(0)) {\n            return false;\n        }\n\n        return NodeRulesProxy(registry[RULES_CONTRACT]).connectionAllowed(\n            enodeId,\n            enodeHost,\n            enodePort\n        );\n    }\n}\n",
  "sourcePath": "/home/ubuntu/permissioning-smart-contracts/contracts/NodeIngress.sol",
  "compiler": {
    "name": "solc",
    "version": "0.8.6+commit.11564f7e.Emscripten.clang"
  },
  "schemaVersion": "3.4.10",
  "updatedAt": "2022-11-16T00:36:19.484Z",
  "networkType": "ethereum",
  "devdoc": {
    "kind": "dev",
    "methods": {},
    "version": 1
  },
  "userdoc": {
    "kind": "user",
    "methods": {},
    "version": 1
  }
}