{
  "contractName": "NodeStorage",
  "abi": [
    {
      "inputs": [
        {
          "internalType": "contract NodeIngress",
          "name": "_ingressContract",
          "type": "address"
        }
      ],
      "stateMutability": "nonpayable",
      "type": "constructor"
    },
    {
      "anonymous": false,
      "inputs": [
        {
          "indexed": false,
          "internalType": "address",
          "name": "oldAddress",
          "type": "address"
        },
        {
          "indexed": false,
          "internalType": "address",
          "name": "newAddress",
          "type": "address"
        }
      ],
      "name": "VersionChange",
      "type": "event"
    },
    {
      "inputs": [
        {
          "internalType": "uint256",
          "name": "",
          "type": "uint256"
        }
      ],
      "name": "allowlist",
      "outputs": [
        {
          "internalType": "string",
          "name": "enodeId",
          "type": "string"
        },
        {
          "internalType": "string",
          "name": "ip",
          "type": "string"
        },
        {
          "internalType": "uint16",
          "name": "port",
          "type": "uint16"
        }
      ],
      "stateMutability": "view",
      "type": "function",
      "constant": true
    },
    {
      "inputs": [
        {
          "internalType": "address",
          "name": "_newVersion",
          "type": "address"
        }
      ],
      "name": "upgradeVersion",
      "outputs": [],
      "stateMutability": "nonpayable",
      "type": "function"
    },
    {
      "inputs": [],
      "name": "size",
      "outputs": [
        {
          "internalType": "uint256",
          "name": "",
          "type": "uint256"
        }
      ],
      "stateMutability": "view",
      "type": "function",
      "constant": true
    },
    {
      "inputs": [
        {
          "internalType": "string",
          "name": "_enodeId",
          "type": "string"
        },
        {
          "internalType": "string",
          "name": "_host",
          "type": "string"
        },
        {
          "internalType": "uint16",
          "name": "_port",
          "type": "uint16"
        }
      ],
      "name": "exists",
      "outputs": [
        {
          "internalType": "bool",
          "name": "",
          "type": "bool"
        }
      ],
      "stateMutability": "view",
      "type": "function",
      "constant": true
    },
    {
      "inputs": [
        {
          "internalType": "string",
          "name": "_enodeId",
          "type": "string"
        },
        {
          "internalType": "string",
          "name": "_host",
          "type": "string"
        },
        {
          "internalType": "uint16",
          "name": "_port",
          "type": "uint16"
        }
      ],
      "name": "add",
      "outputs": [
        {
          "internalType": "bool",
          "name": "",
          "type": "bool"
        }
      ],
      "stateMutability": "nonpayable",
      "type": "function"
    },
    {
      "inputs": [
        {
          "internalType": "string",
          "name": "_enodeId",
          "type": "string"
        },
        {
          "internalType": "string",
          "name": "_host",
          "type": "string"
        },
        {
          "internalType": "uint16",
          "name": "_port",
          "type": "uint16"
        }
      ],
      "name": "remove",
      "outputs": [
        {
          "internalType": "bool",
          "name": "",
          "type": "bool"
        }
      ],
      "stateMutability": "nonpayable",
      "type": "function"
    },
    {
      "inputs": [
        {
          "internalType": "uint256",
          "name": "index",
          "type": "uint256"
        }
      ],
      "name": "getByIndex",
      "outputs": [
        {
          "internalType": "string",
          "name": "enodeId",
          "type": "string"
        },
        {
          "internalType": "string",
          "name": "ip",
          "type": "string"
        },
        {
          "internalType": "uint16",
          "name": "port",
          "type": "uint16"
        }
      ],
      "stateMutability": "view",
      "type": "function",
      "constant": true
    },
    {
      "inputs": [
        {
          "internalType": "bool",
          "name": "_onlyUseEnodeId",
          "type": "bool"
        }
      ],
      "name": "setValidateEnodeIdOnly",
      "outputs": [
        {
          "internalType": "bool",
          "name": "",
          "type": "bool"
        }
      ],
      "stateMutability": "nonpayable",
      "type": "function"
    },
    {
      "inputs": [
        {
          "internalType": "string",
          "name": "_enodeId",
          "type": "string"
        },
        {
          "internalType": "string",
          "name": "_host",
          "type": "string"
        },
        {
          "internalType": "uint16",
          "name": "_port",
          "type": "uint16"
        }
      ],
      "name": "calculateKey",
      "outputs": [
        {
          "internalType": "uint256",
          "name": "",
          "type": "uint256"
        }
      ],
      "stateMutability": "view",
      "type": "function",
      "constant": true
    }
  ],
  "bytecode": "0x6080604052336000806101000a81548173ffffffffffffffffffffffffffffffffffffffff021916908373ffffffffffffffffffffffffffffffffffffffff16021790555033600160006101000a81548173ffffffffffffffffffffffffffffffffffffffff021916908373ffffffffffffffffffffffffffffffffffffffff1602179055503480156200009257600080fd5b50604051620021ab380380620021ab8339818101604052810190620000b8919062000132565b80600260006101000a81548173ffffffffffffffffffffffffffffffffffffffff021916908373ffffffffffffffffffffffffffffffffffffffff1602179055506000600560006101000a81548160ff02191690831515021790555050620001cb565b6000815190506200012c81620001b1565b92915050565b6000602082840312156200014b576200014a620001ac565b5b60006200015b848285016200011b565b91505092915050565b600062000171826200018c565b9050919050565b6000620001858262000164565b9050919050565b600073ffffffffffffffffffffffffffffffffffffffff82169050919050565b600080fd5b620001bc8162000178565b8114620001c857600080fd5b50565b611fd080620001db6000396000f3fe608060405234801561001057600080fd5b50600436106100935760003560e01c8063949d225d11610066578063949d225d1461015c578063b8debb1b1461017a578063d28eb963146101aa578063da85216c146101c6578063f49b9223146101f657610093565b80632d883a7314610098578063320ce9ed146100ca57806347c065cd146100fa57806369c458241461012a575b600080fd5b6100b260048036038101906100ad919061173c565b610226565b6040516100c193929190611987565b60405180910390f35b6100e460048036038101906100df919061162a565b6103de565b6040516100f19190611951565b60405180910390f35b610114600480360381019061010f91906116b1565b610857565b6040516101219190611951565b60405180910390f35b610144600480360381019061013f919061173c565b610883565b60405161015393929190611987565b60405180910390f35b6101646109db565b6040516101719190611a4c565b60405180910390f35b610194600480360381019061018f91906116b1565b6109e8565b6040516101a19190611a4c565b60405180910390f35b6101c460048036038101906101bf91906115d0565b610a67565b005b6101e060048036038101906101db91906116b1565b610e77565b6040516101ed9190611951565b60405180910390f35b610210600480360381019061020b91906116b1565b61122c565b60405161021d9190611951565b60405180910390f35b6060806000808410158015610241575061023e6109db565b84105b156103d65760006003858154811061025c5761025b611d5b565b5b906000526020600020906003020160405180606001604052908160008201805461028590611c10565b80601f01602080910402602001604051908101604052809291908181526020018280546102b190611c10565b80156102fe5780601f106102d3576101008083540402835291602001916102fe565b820191906000526020600020905b8154815290600101906020018083116102e157829003601f168201915b5050505050815260200160018201805461031790611c10565b80601f016020809104026020016040519081016040528092919081815260200182805461034390611c10565b80156103905780601f1061036557610100808354040283529160200191610390565b820191906000526020600020905b81548152906001019060200180831161037357829003601f168201915b505050505081526020016002820160009054906101000a900461ffff1661ffff1661ffff16815250509050806000015181602001518260400151935093509350506103d7565b5b9193909250565b60008060009054906101000a900473ffffffffffffffffffffffffffffffffffffffff1673ffffffffffffffffffffffffffffffffffffffff163373ffffffffffffffffffffffffffffffffffffffff161461046f576040517f08c379a0000000000000000000000000000000000000000000000000000000008152600401610466906119cc565b60405180910390fd5b811515600560009054906101000a900460ff16151514156104935760019050610852565b61049b6113c5565b60005b60038054905081101561066057600381815481106104bf576104be611d5b565b5b90600052602060002090600302016040518060600160405290816000820180546104e890611c10565b80601f016020809104026020016040519081016040528092919081815260200182805461051490611c10565b80156105615780601f1061053657610100808354040283529160200191610561565b820191906000526020600020905b81548152906001019060200180831161054457829003601f168201915b5050505050815260200160018201805461057a90611c10565b80601f01602080910402602001604051908101604052809291908181526020018280546105a690611c10565b80156105f35780601f106105c8576101008083540402835291602001916105f3565b820191906000526020600020905b8154815290600101906020018083116105d657829003601f168201915b505050505081526020016002820160009054906101000a900461ffff1661ffff1661ffff1681525050915060006004600061063b8560000151866020015187604001516109e8565b815260200190815260200160002081905550808061065890611c73565b91505061049e565b5082600560006101000a81548160ff02191690831515021790555060005b60038054905081101561084b576003818154811061069f5761069e611d5b565b5b90600052602060002090600302016040518060600160405290816000820180546106c890611c10565b80601f01602080910402602001604051908101604052809291908181526020018280546106f490611c10565b80156107415780601f1061071657610100808354040283529160200191610741565b820191906000526020600020905b81548152906001019060200180831161072457829003601f168201915b5050505050815260200160018201805461075a90611c10565b80601f016020809104026020016040519081016040528092919081815260200182805461078690611c10565b80156107d35780601f106107a8576101008083540402835291602001916107d3565b820191906000526020600020905b8154815290600101906020018083116107b657829003601f168201915b505050505081526020016002820160009054906101000a900461ffff1661ffff1661ffff1681525050915060018161080b9190611ae4565b600460006108268560000151866020015187604001516109e8565b815260200190815260200160002081905550808061084390611c73565b91505061067e565b5060019150505b919050565b600080600460006108698787876109e8565b815260200190815260200160002054141590509392505050565b6003818154811061089357600080fd5b90600052602060002090600302016000915090508060000180546108b690611c10565b80601f01602080910402602001604051908101604052809291908181526020018280546108e290611c10565b801561092f5780601f106109045761010080835404028352916020019161092f565b820191906000526020600020905b81548152906001019060200180831161091257829003601f168201915b50505050509080600101805461094490611c10565b80601f016020809104026020016040519081016040528092919081815260200182805461097090611c10565b80156109bd5780601f10610992576101008083540402835291602001916109bd565b820191906000526020600020905b8154815290600101906020018083116109a057829003601f168201915b5050505050908060020160009054906101000a900461ffff16905083565b6000600380549050905090565b6000600560009054906101000a900460ff16610a3357838383604051602001610a13939291906118d8565b6040516020818303038152906040528051906020012060001c9050610a60565b83604051602001610a4491906118c1565b6040516020818303038152906040528051906020012060001c90505b9392505050565b600260009054906101000a900473ffffffffffffffffffffffffffffffffffffffff1673ffffffffffffffffffffffffffffffffffffffff16600073ffffffffffffffffffffffffffffffffffffffff161415610b5357600160009054906101000a900473ffffffffffffffffffffffffffffffffffffffff1673ffffffffffffffffffffffffffffffffffffffff163373ffffffffffffffffffffffffffffffffffffffff1614610b4e576040517f08c379a0000000000000000000000000000000000000000000000000000000008152600401610b4590611a0c565b60405180910390fd5b610ddb565b6000600260009054906101000a900473ffffffffffffffffffffffffffffffffffffffff1673ffffffffffffffffffffffffffffffffffffffff16630d2020dd600260009054906101000a900473ffffffffffffffffffffffffffffffffffffffff1673ffffffffffffffffffffffffffffffffffffffff16631e7c27cb6040518163ffffffff1660e01b815260040160206040518083038186803b158015610bfb57600080fd5b505afa158015610c0f573d6000803e3d6000fd5b505050506040513d601f19601f82011682018060405250810190610c339190611684565b6040518263ffffffff1660e01b8152600401610c4f919061196c565b60206040518083038186803b158015610c6757600080fd5b505afa158015610c7b573d6000803e3d6000fd5b505050506040513d601f19601f82011682018060405250810190610c9f91906115fd565b9050600073ffffffffffffffffffffffffffffffffffffffff168173ffffffffffffffffffffffffffffffffffffffff161415610d11576040517f08c379a0000000000000000000000000000000000000000000000000000000008152600401610d0890611a2c565b60405180910390fd5b8073ffffffffffffffffffffffffffffffffffffffff1663fe9fbb80336040518263ffffffff1660e01b8152600401610d4a919061190d565b60206040518083038186803b158015610d6257600080fd5b505afa158015610d76573d6000803e3d6000fd5b505050506040513d601f19601f82011682018060405250810190610d9a9190611657565b610dd9576040517f08c379a0000000000000000000000000000000000000000000000000000000008152600401610dd0906119ec565b60405180910390fd5b505b7f0c39c5a3f05921b7fb440fdd6cefa724ee3a8bc55b4398c28f209c727fb8b01160008054906101000a900473ffffffffffffffffffffffffffffffffffffffff1682604051610e2c929190611928565b60405180910390a1806000806101000a81548173ffffffffffffffffffffffffffffffffffffffff021916908373ffffffffffffffffffffffffffffffffffffffff16021790555050565b60008060009054906101000a900473ffffffffffffffffffffffffffffffffffffffff1673ffffffffffffffffffffffffffffffffffffffff163373ffffffffffffffffffffffffffffffffffffffff1614610f08576040517f08c379a0000000000000000000000000000000000000000000000000000000008152600401610eff906119cc565b60405180910390fd5b6000610f158585856109e8565b9050600060046000838152602001908152602001600020549050600081118015610f4457506003805490508111155b1561121e57600380549050811461119a57600060036001600380549050610f6b9190611b3a565b81548110610f7c57610f7b611d5b565b5b9060005260206000209060030201604051806060016040529081600082018054610fa590611c10565b80601f0160208091040260200160405190810160405280929190818152602001828054610fd190611c10565b801561101e5780601f10610ff35761010080835404028352916020019161101e565b820191906000526020600020905b81548152906001019060200180831161100157829003601f168201915b5050505050815260200160018201805461103790611c10565b80601f016020809104026020016040519081016040528092919081815260200182805461106390611c10565b80156110b05780601f10611085576101008083540402835291602001916110b0565b820191906000526020600020905b81548152906001019060200180831161109357829003601f168201915b505050505081526020016002820160009054906101000a900461ffff1661ffff1661ffff168152505090508060036001846110eb9190611b3a565b815481106110fc576110fb611d5b565b5b906000526020600020906003020160008201518160000190805190602001906111269291906113ea565b5060208201518160010190805190602001906111439291906113ea565b5060408201518160020160006101000a81548161ffff021916908361ffff16021790555090505081600460006111868460000151856020015186604001516109e8565b815260200190815260200160002081905550505b60038054806111ac576111ab611d2c565b5b6001900381819060005260206000209060030201600080820160006111d19190611470565b6001820160006111e19190611470565b6002820160006101000a81549061ffff02191690555050905560006004600084815260200190815260200160002081905550600192505050611225565b6000925050505b9392505050565b60008060009054906101000a900473ffffffffffffffffffffffffffffffffffffffff1673ffffffffffffffffffffffffffffffffffffffff163373ffffffffffffffffffffffffffffffffffffffff16146112bd576040517f08c379a00000000000000000000000000000000000000000000000000000000081526004016112b4906119cc565b60405180910390fd5b60006112ca8585856109e8565b90506000600460008381526020019081526020016000205414156113b857600360405180606001604052808781526020018681526020018561ffff168152509080600181540180825580915050600190039060005260206000209060030201600090919091909150600082015181600001908051906020019061134e9291906113ea565b50602082015181600101908051906020019061136b9291906113ea565b5060408201518160020160006101000a81548161ffff021916908361ffff1602179055505050600380549050600460008381526020019081526020016000208190555060019150506113be565b60009150505b9392505050565b60405180606001604052806060815260200160608152602001600061ffff1681525090565b8280546113f690611c10565b90600052602060002090601f016020900481019282611418576000855561145f565b82601f1061143157805160ff191683800117855561145f565b8280016001018555821561145f579182015b8281111561145e578251825591602001919060010190611443565b5b50905061146c91906114b0565b5090565b50805461147c90611c10565b6000825580601f1061148e57506114ad565b601f0160209004906000526020600020908101906114ac91906114b0565b5b50565b5b808211156114c95760008160009055506001016114b1565b5090565b60006114e06114db84611a8c565b611a67565b9050828152602081018484840111156114fc576114fb611dbe565b5b611507848285611bce565b509392505050565b60008135905061151e81611f27565b92915050565b60008151905061153381611f27565b92915050565b60008135905061154881611f3e565b92915050565b60008151905061155d81611f3e565b92915050565b60008151905061157281611f55565b92915050565b600082601f83011261158d5761158c611db9565b5b813561159d8482602086016114cd565b91505092915050565b6000813590506115b581611f6c565b92915050565b6000813590506115ca81611f83565b92915050565b6000602082840312156115e6576115e5611dc8565b5b60006115f48482850161150f565b91505092915050565b60006020828403121561161357611612611dc8565b5b600061162184828501611524565b91505092915050565b6000602082840312156116405761163f611dc8565b5b600061164e84828501611539565b91505092915050565b60006020828403121561166d5761166c611dc8565b5b600061167b8482850161154e565b91505092915050565b60006020828403121561169a57611699611dc8565b5b60006116a884828501611563565b91505092915050565b6000806000606084860312156116ca576116c9611dc8565b5b600084013567ffffffffffffffff8111156116e8576116e7611dc3565b5b6116f486828701611578565b935050602084013567ffffffffffffffff81111561171557611714611dc3565b5b61172186828701611578565b9250506040611732868287016115a6565b9150509250925092565b60006020828403121561175257611751611dc8565b5b6000611760848285016115bb565b91505092915050565b61177281611b6e565b82525050565b61178181611b80565b82525050565b61179081611b8c565b82525050565b60006117a182611abd565b6117ab8185611ac8565b93506117bb818560208601611bdd565b6117c481611dcd565b840191505092915050565b60006117da82611abd565b6117e48185611ad9565b93506117f4818560208601611bdd565b80840191505092915050565b600061180d602a83611ac8565b915061181882611deb565b604082019050919050565b6000611830601583611ac8565b915061183b82611e3a565b602082019050919050565b6000611853604483611ac8565b915061185e82611e63565b606082019050919050565b6000611876603483611ac8565b915061188182611ed8565b604082019050919050565b61189581611b96565b82525050565b6118ac6118a782611b96565b611cbc565b82525050565b6118bb81611bc4565b82525050565b60006118cd82846117cf565b915081905092915050565b60006118e482866117cf565b91506118f082856117cf565b91506118fc828461189b565b600282019150819050949350505050565b60006020820190506119226000830184611769565b92915050565b600060408201905061193d6000830185611769565b61194a6020830184611769565b9392505050565b60006020820190506119666000830184611778565b92915050565b60006020820190506119816000830184611787565b92915050565b600060608201905081810360008301526119a18186611796565b905081810360208301526119b58185611796565b90506119c4604083018461188c565b949350505050565b600060208201905081810360008301526119e581611800565b9050919050565b60006020820190508181036000830152611a0581611823565b9050919050565b60006020820190508181036000830152611a2581611846565b9050919050565b60006020820190508181036000830152611a4581611869565b9050919050565b6000602082019050611a6160008301846118b2565b92915050565b6000611a71611a82565b9050611a7d8282611c42565b919050565b6000604051905090565b600067ffffffffffffffff821115611aa757611aa6611d8a565b5b611ab082611dcd565b9050602081019050919050565b600081519050919050565b600082825260208201905092915050565b600081905092915050565b6000611aef82611bc4565b9150611afa83611bc4565b9250827fffffffffffffffffffffffffffffffffffffffffffffffffffffffffffffffff03821115611b2f57611b2e611cce565b5b828201905092915050565b6000611b4582611bc4565b9150611b5083611bc4565b925082821015611b6357611b62611cce565b5b828203905092915050565b6000611b7982611ba4565b9050919050565b60008115159050919050565b6000819050919050565b600061ffff82169050919050565b600073ffffffffffffffffffffffffffffffffffffffff82169050919050565b6000819050919050565b82818337600083830152505050565b60005b83811015611bfb578082015181840152602081019050611be0565b83811115611c0a576000848401525b50505050565b60006002820490506001821680611c2857607f821691505b60208210811415611c3c57611c3b611cfd565b5b50919050565b611c4b82611dcd565b810181811067ffffffffffffffff82111715611c6a57611c69611d8a565b5b80604052505050565b6000611c7e82611bc4565b91507fffffffffffffffffffffffffffffffffffffffffffffffffffffffffffffffff821415611cb157611cb0611cce565b5b600182019050919050565b6000611cc782611dde565b9050919050565b7f4e487b7100000000000000000000000000000000000000000000000000000000600052601160045260246000fd5b7f4e487b7100000000000000000000000000000000000000000000000000000000600052602260045260246000fd5b7f4e487b7100000000000000000000000000000000000000000000000000000000600052603160045260246000fd5b7f4e487b7100000000000000000000000000000000000000000000000000000000600052603260045260246000fd5b7f4e487b7100000000000000000000000000000000000000000000000000000000600052604160045260246000fd5b600080fd5b600080fd5b600080fd5b600080fd5b6000601f19601f8301169050919050565b60008160f01b9050919050565b7f6f6e6c7920746865206c617465737456657273696f6e2063616e206d6f64696660008201527f7920746865206c69737400000000000000000000000000000000000000000000602082015250565b7f53656e646572206e6f7420617574686f72697a65640000000000000000000000600082015250565b7f6f6e6c79206f776e6572207065726d69747465642073696e636520696e67726560008201527f7373436f6e7472616374206973206578706c696369746c792073657420746f2060208201527f7a65726f00000000000000000000000000000000000000000000000000000000604082015250565b7f496e677265737320636f6e7472616374206d75737420686176652041646d696e60008201527f20636f6e74726163742072656769737465726564000000000000000000000000602082015250565b611f3081611b6e565b8114611f3b57600080fd5b50565b611f4781611b80565b8114611f5257600080fd5b50565b611f5e81611b8c565b8114611f6957600080fd5b50565b611f7581611b96565b8114611f8057600080fd5b50565b611f8c81611bc4565b8114611f9757600080fd5b5056fea26469706673582212207ec950cb7f383a547f4a6a6dbc213b563c76adda2cc82f745ac3234cff80dbfa64736f6c63430008060033",
  "immutableReferences": {},
  "source": "/*\n * Copyright ConsenSys AG.\n *\n * Licensed under the Apache License, Version 2.0 (the \"License\"); you may not use this file except in compliance with\n * the License. You may obtain a copy of the License at\n *\n * http://www.apache.org/licenses/LICENSE-2.0\n *\n * Unless required by applicable law or agreed to in writing, software distributed under the License is distributed on\n * an \"AS IS\" BASIS, WITHOUT WARRANTIES OR CONDITIONS OF ANY KIND, either express or implied. See the License for the\n * specific language governing permissions and limitations under the License.\n *\n * SPDX-License-Identifier: Apache-2.0\n */\npragma solidity >=0.6.0 <0.9.0;\n\nimport \"./Admin.sol\";\nimport \"./NodeIngress.sol\";\n\n\ncontract NodeStorage {\n    event VersionChange(\n        address oldAddress,\n        address newAddress\n    );\n    // initialize this to the deployer of this contract\n    address private latestVersion = msg.sender;\n    address private owner = msg.sender;\n\n    NodeIngress private ingressContract;\n\n\n\n    // struct size = 82 bytes\n    struct enode {\n        string enodeId;\n        string ip;\n        uint16 port;\n    }\n\n    enode[] public allowlist;\n    mapping (uint256 => uint256) private indexOf; //1-based indexing. 0 means non-existent\n\n    bool private onlyUseEnodeId;\n\n    constructor (NodeIngress _ingressContract) public {\n        ingressContract = _ingressContract;\n        onlyUseEnodeId = false;\n    }\n\n    modifier onlyLatestVersion() {\n        require(msg.sender == latestVersion, \"only the latestVersion can modify the list\");\n        _;\n    }\n\n    modifier onlyAdmin() {\n        if (address(0) == address(ingressContract)) {\n            require(msg.sender == owner, \"only owner permitted since ingressContract is explicitly set to zero\");\n        } else {\n            address adminContractAddress = ingressContract.getContractAddress(ingressContract.ADMIN_CONTRACT());\n\n            require(adminContractAddress != address(0), \"Ingress contract must have Admin contract registered\");\n            require(Admin(adminContractAddress).isAuthorized(msg.sender), \"Sender not authorized\");\n        }\n        _;\n    }\n\n    function upgradeVersion(address _newVersion) public onlyAdmin {\n        emit VersionChange(latestVersion, _newVersion);\n        latestVersion = _newVersion;\n    }\n\n    function size() public view returns (uint256) {\n        return allowlist.length;\n    }\n\n    function exists(string memory _enodeId, string memory _host, uint16 _port) public view returns (bool) {\n        return indexOf[calculateKey(_enodeId, _host, _port)] != 0;\n    }\n\n    function add(string memory _enodeId, string memory _host, uint16 _port) public onlyLatestVersion returns (bool) {\n        uint256 key = calculateKey(_enodeId, _host, _port);\n        if (indexOf[key] == 0) {\n            allowlist.push(enode(_enodeId, _host, _port));\n            indexOf[key] = allowlist.length;\n            return true;\n        }\n        return false;\n    }\n\n    function remove(string memory _enodeId, string memory _host, uint16 _port) public onlyLatestVersion returns (bool) {\n        uint256 key = calculateKey(_enodeId, _host, _port);\n        uint256 index = indexOf[key];\n\n        if (index > 0 && index <= allowlist.length) { //1 based indexing\n            //move last item into index being vacated (unless we are dealing with last index)\n            if (index != allowlist.length) {\n                enode memory lastEnode = allowlist[allowlist.length - 1];\n                allowlist[index - 1] = lastEnode;\n                indexOf[calculateKey(lastEnode.enodeId, lastEnode.ip, lastEnode.port)] = index;\n            }\n\n            //shrink array\n            allowlist.pop();\n            indexOf[key] = 0;\n            return true;\n        }\n\n        return false;\n    }\n\n    function getByIndex(uint index) external view returns (string memory enodeId, string memory ip, uint16 port) {\n        if (index >= 0 && index < size()) {\n            enode memory item = allowlist[index];\n            return (item.enodeId, item.ip, item.port);\n        }\n    }\n\n    function setValidateEnodeIdOnly (bool _onlyUseEnodeId) public onlyLatestVersion returns (bool) {\n        if (onlyUseEnodeId == _onlyUseEnodeId) {\n            return true;\n        }\n\n        // First we reset old map entries\n        enode memory entry;\n        for (uint256 index = 0; index < allowlist.length; index++) {\n            entry = allowlist[index];\n            indexOf[calculateKey(entry.enodeId, entry.ip, entry.port)] = 0;\n        }\n\n        onlyUseEnodeId = _onlyUseEnodeId;\n\n        for (uint256 index = 0; index < allowlist.length; index++) {\n            entry = allowlist[index];\n            indexOf[calculateKey(entry.enodeId, entry.ip, entry.port)] = index + 1;\n        }\n\n        return true;\n    }\n\n    function calculateKey(string memory _enodeId, string memory _host, uint16 _port) public view returns(uint256) {\n        if (!onlyUseEnodeId) {\n            return uint256(keccak256(abi.encodePacked(_enodeId, _host, _port)));\n        }\n        return uint256(keccak256(abi.encodePacked(_enodeId)));\n    }\n}\n",
  "sourcePath": "/home/ubuntu/permissioning-smart-contracts/contracts/NodeStorage.sol",
  "compiler": {
    "name": "solc",
    "version": "0.8.6+commit.11564f7e.Emscripten.clang"
  },
  "schemaVersion": "3.4.10",
  "updatedAt": "2022-11-16T00:36:19.491Z",
  "networkType": "ethereum",
  "devdoc": {
    "kind": "dev",
    "methods": {},
    "version": 1
  },
  "userdoc": {
    "kind": "user",
    "methods": {},
    "version": 1
  }
}