{
  "contractName": "NodeRulesList",
  "abi": [
    {
      "inputs": [
        {
          "internalType": "string",
          "name": "_enodeId",
          "type": "string"
        },
        {
          "internalType": "string",
          "name": "_host",
          "type": "string"
        },
        {
          "internalType": "uint16",
          "name": "_port",
          "type": "uint16"
        }
      ],
      "name": "calculateKey",
      "outputs": [
        {
          "internalType": "uint256",
          "name": "",
          "type": "uint256"
        }
      ],
      "stateMutability": "view",
      "type": "function"
    },
    {
      "inputs": [
        {
          "internalType": "uint256",
          "name": "index",
          "type": "uint256"
        }
      ],
      "name": "getByIndex",
      "outputs": [
        {
          "internalType": "string",
          "name": "enodeId",
          "type": "string"
        },
        {
          "internalType": "string",
          "name": "host",
          "type": "string"
        },
        {
          "internalType": "uint16",
          "name": "port",
          "type": "uint16"
        }
      ],
      "stateMutability": "view",
      "type": "function"
    }
  ],
  "bytecode": "0x608060405234801561001057600080fd5b50610727806100206000396000f3fe608060405234801561001057600080fd5b50600436106100365760003560e01c80632d883a731461003b578063b8debb1b1461006d575b600080fd5b61005560048036038101906100509190610461565b61009d565b60405161006493929190610512565b60405180910390f35b6100876004803603810190610082919061034b565b61015e565b6040516100949190610557565b60405180910390f35b60608060008060009054906101000a900473ffffffffffffffffffffffffffffffffffffffff1673ffffffffffffffffffffffffffffffffffffffff16632d883a73856040518263ffffffff1660e01b81526004016100fc9190610557565b60006040518083038186803b15801561011457600080fd5b505afa158015610128573d6000803e3d6000fd5b505050506040513d6000823e3d601f19601f8201168201806040525081019061015191906103d6565b9250925092509193909250565b60008060009054906101000a900473ffffffffffffffffffffffffffffffffffffffff1673ffffffffffffffffffffffffffffffffffffffff1663b8debb1b8585856040518463ffffffff1660e01b81526004016101be93929190610512565b60206040518083038186803b1580156101d657600080fd5b505afa1580156101ea573d6000803e3d6000fd5b505050506040513d601f19601f8201168201806040525081019061020e919061048e565b90509392505050565b600061022a61022584610597565b610572565b905082815260208101848484011115610246576102456106a3565b5b6102518482856105fc565b509392505050565b600061026c61026784610597565b610572565b905082815260208101848484011115610288576102876106a3565b5b61029384828561060b565b509392505050565b600082601f8301126102b0576102af61069e565b5b81356102c0848260208601610217565b91505092915050565b600082601f8301126102de576102dd61069e565b5b81516102ee848260208601610259565b91505092915050565b600081359050610306816106c3565b92915050565b60008151905061031b816106c3565b92915050565b600081359050610330816106da565b92915050565b600081519050610345816106da565b92915050565b600080600060608486031215610364576103636106ad565b5b600084013567ffffffffffffffff811115610382576103816106a8565b5b61038e8682870161029b565b935050602084013567ffffffffffffffff8111156103af576103ae6106a8565b5b6103bb8682870161029b565b92505060406103cc868287016102f7565b9150509250925092565b6000806000606084860312156103ef576103ee6106ad565b5b600084015167ffffffffffffffff81111561040d5761040c6106a8565b5b610419868287016102c9565b935050602084015167ffffffffffffffff81111561043a576104396106a8565b5b610446868287016102c9565b92505060406104578682870161030c565b9150509250925092565b600060208284031215610477576104766106ad565b5b600061048584828501610321565b91505092915050565b6000602082840312156104a4576104a36106ad565b5b60006104b284828501610336565b91505092915050565b60006104c6826105c8565b6104d081856105d3565b93506104e081856020860161060b565b6104e9816106b2565b840191505092915050565b6104fd816105e4565b82525050565b61050c816105f2565b82525050565b6000606082019050818103600083015261052c81866104bb565b9050818103602083015261054081856104bb565b905061054f60408301846104f4565b949350505050565b600060208201905061056c6000830184610503565b92915050565b600061057c61058d565b9050610588828261063e565b919050565b6000604051905090565b600067ffffffffffffffff8211156105b2576105b161066f565b5b6105bb826106b2565b9050602081019050919050565b600081519050919050565b600082825260208201905092915050565b600061ffff82169050919050565b6000819050919050565b82818337600083830152505050565b60005b8381101561062957808201518184015260208101905061060e565b83811115610638576000848401525b50505050565b610647826106b2565b810181811067ffffffffffffffff821117156106665761066561066f565b5b80604052505050565b7f4e487b7100000000000000000000000000000000000000000000000000000000600052604160045260246000fd5b600080fd5b600080fd5b600080fd5b600080fd5b6000601f19601f8301169050919050565b6106cc816105e4565b81146106d757600080fd5b50565b6106e3816105f2565b81146106ee57600080fd5b5056fea26469706673582212205e4b20f5f9e99dfdfada8a3725005a4ca628141c818a4c1e4d232c8edbce018e64736f6c63430008060033",
  "immutableReferences": {},
  "source": "/*\n * Copyright ConsenSys AG.\n *\n * Licensed under the Apache License, Version 2.0 (the \"License\"); you may not use this file except in compliance with\n * the License. You may obtain a copy of the License at\n *\n * http://www.apache.org/licenses/LICENSE-2.0\n *\n * Unless required by applicable law or agreed to in writing, software distributed under the License is distributed on\n * an \"AS IS\" BASIS, WITHOUT WARRANTIES OR CONDITIONS OF ANY KIND, either express or implied. See the License for the\n * specific language governing permissions and limitations under the License.\n *\n * SPDX-License-Identifier: Apache-2.0\n */\npragma solidity >=0.6.0 <0.9.0;\n\nimport \"./NodeStorage.sol\";\n\n\ncontract NodeRulesList {\n\n    // struct size = 82 bytes\n    struct enode {\n        string enodeId;\n        string host;\n        uint16 port;\n    }\n\n    NodeStorage private nodeStorage;\n\n    function setStorage(NodeStorage _storage) internal {\n        nodeStorage = _storage;\n    }\n\n    function upgradeVersion(address _newVersion) internal {\n        nodeStorage.upgradeVersion(_newVersion);\n    }\n\n    function size() internal view returns (uint256) {\n        return nodeStorage.size();\n    }\n\n    function exists(string memory _enodeId, string memory _host, uint16 _port) internal view returns (bool) {\n        return nodeStorage.exists(_enodeId, _host, _port);\n    }\n\n    function add(string memory _enodeId, string memory _host, uint16 _port) internal returns (bool) {\n        return nodeStorage.add(_enodeId, _host, _port);\n    }\n\n    function remove(string memory _enodeId, string memory _host, uint16 _port) internal returns (bool) {\n        return nodeStorage.remove(_enodeId, _host, _port);\n    }\n\n    function calculateKey(string memory _enodeId, string memory _host, uint16 _port) public view returns(uint256) {\n        return nodeStorage.calculateKey(_enodeId, _host, _port);\n    }\n\n    function getByIndex(uint index) external view returns (string memory enodeId, string memory host, uint16 port) {\n        return nodeStorage.getByIndex(index);\n    }\n\n    function setValidateEnodeIdOnly(bool _onlyUseEnodeId) internal returns (bool) {\n        return nodeStorage.setValidateEnodeIdOnly(_onlyUseEnodeId);\n    }\n}\n",
  "sourcePath": "/home/ubuntu/permissioning-smart-contracts/contracts/NodeRulesList.sol",
  "compiler": {
    "name": "solc",
    "version": "0.8.6+commit.11564f7e.Emscripten.clang"
  },
  "schemaVersion": "3.4.10",
  "updatedAt": "2022-11-14T21:08:03.764Z",
  "devdoc": {
    "kind": "dev",
    "methods": {},
    "version": 1
  },
  "userdoc": {
    "kind": "user",
    "methods": {},
    "version": 1
  }
}